{
  "_format": "hh-sol-artifact-1",
  "contractName": "PixellNFT",
  "sourceName": "contracts/NFT.sol",
  "abi": [
    {
      "inputs": [],
      "stateMutability": "nonpayable",
      "type": "constructor"
    },
    {
      "anonymous": false,
      "inputs": [
        {
          "indexed": true,
          "internalType": "address",
          "name": "owner",
          "type": "address"
        },
        {
          "indexed": true,
          "internalType": "address",
          "name": "approved",
          "type": "address"
        },
        {
          "indexed": true,
          "internalType": "uint256",
          "name": "tokenId",
          "type": "uint256"
        }
      ],
      "name": "Approval",
      "type": "event"
    },
    {
      "anonymous": false,
      "inputs": [
        {
          "indexed": true,
          "internalType": "address",
          "name": "owner",
          "type": "address"
        },
        {
          "indexed": true,
          "internalType": "address",
          "name": "operator",
          "type": "address"
        },
        {
          "indexed": false,
          "internalType": "bool",
          "name": "approved",
          "type": "bool"
        }
      ],
      "name": "ApprovalForAll",
      "type": "event"
    },
    {
      "anonymous": false,
      "inputs": [
        {
          "indexed": false,
          "internalType": "address",
          "name": "_seller",
          "type": "address"
        },
        {
          "indexed": false,
          "internalType": "address",
          "name": "_buyer",
          "type": "address"
        },
        {
          "indexed": false,
          "internalType": "uint256",
          "name": "_price",
          "type": "uint256"
        }
      ],
      "name": "NFTBought",
      "type": "event"
    },
    {
      "anonymous": false,
      "inputs": [
        {
          "indexed": true,
          "internalType": "address",
          "name": "from",
          "type": "address"
        },
        {
          "indexed": true,
          "internalType": "address",
          "name": "to",
          "type": "address"
        },
        {
          "indexed": true,
          "internalType": "uint256",
          "name": "tokenId",
          "type": "uint256"
        }
      ],
      "name": "Transfer",
      "type": "event"
    },
    {
      "inputs": [
        {
          "internalType": "uint256",
          "name": "_tokenId",
          "type": "uint256"
        },
        {
          "internalType": "uint256",
          "name": "_price",
          "type": "uint256"
        }
      ],
      "name": "allowBuy",
      "outputs": [],
      "stateMutability": "nonpayable",
      "type": "function"
    },
    {
      "inputs": [
        {
          "internalType": "address",
          "name": "to",
          "type": "address"
        },
        {
          "internalType": "uint256",
          "name": "tokenId",
          "type": "uint256"
        }
      ],
      "name": "approve",
      "outputs": [],
      "stateMutability": "nonpayable",
      "type": "function"
    },
    {
      "inputs": [
        {
          "internalType": "address",
          "name": "owner",
          "type": "address"
        }
      ],
      "name": "balanceOf",
      "outputs": [
        {
          "internalType": "uint256",
          "name": "",
          "type": "uint256"
        }
      ],
      "stateMutability": "view",
      "type": "function"
    },
    {
      "inputs": [
        {
          "internalType": "uint256",
          "name": "_tokenId",
          "type": "uint256"
        }
      ],
      "name": "buyNFT",
      "outputs": [],
      "stateMutability": "payable",
      "type": "function"
    },
    {
      "inputs": [
        {
          "internalType": "uint256",
          "name": "_tokenId",
          "type": "uint256"
        }
      ],
      "name": "disallowBuy",
      "outputs": [],
      "stateMutability": "nonpayable",
      "type": "function"
    },
    {
      "inputs": [
        {
          "internalType": "uint256",
          "name": "tokenId",
          "type": "uint256"
        }
      ],
      "name": "getApproved",
      "outputs": [
        {
          "internalType": "address",
          "name": "",
          "type": "address"
        }
      ],
      "stateMutability": "view",
      "type": "function"
    },
    {
      "inputs": [
        {
          "internalType": "address",
          "name": "owner",
          "type": "address"
        },
        {
          "internalType": "address",
          "name": "operator",
          "type": "address"
        }
      ],
      "name": "isApprovedForAll",
      "outputs": [
        {
          "internalType": "bool",
          "name": "",
          "type": "bool"
        }
      ],
      "stateMutability": "view",
      "type": "function"
    },
    {
      "inputs": [
        {
          "internalType": "address",
          "name": "recipient",
          "type": "address"
        },
        {
          "internalType": "string",
          "name": "tokenURI",
          "type": "string"
        }
      ],
      "name": "mintNFT",
      "outputs": [
        {
          "internalType": "uint256",
          "name": "",
          "type": "uint256"
        }
      ],
      "stateMutability": "nonpayable",
      "type": "function"
    },
    {
      "inputs": [],
      "name": "name",
      "outputs": [
        {
          "internalType": "string",
          "name": "",
          "type": "string"
        }
      ],
      "stateMutability": "view",
      "type": "function"
    },
    {
      "inputs": [
        {
          "internalType": "uint256",
          "name": "tokenId",
          "type": "uint256"
        }
      ],
      "name": "ownerOf",
      "outputs": [
        {
          "internalType": "address",
          "name": "",
          "type": "address"
        }
      ],
      "stateMutability": "view",
      "type": "function"
    },
    {
      "inputs": [
        {
          "internalType": "address",
          "name": "from",
          "type": "address"
        },
        {
          "internalType": "address",
          "name": "to",
          "type": "address"
        },
        {
          "internalType": "uint256",
          "name": "tokenId",
          "type": "uint256"
        }
      ],
      "name": "safeTransferFrom",
      "outputs": [],
      "stateMutability": "nonpayable",
      "type": "function"
    },
    {
      "inputs": [
        {
          "internalType": "address",
          "name": "from",
          "type": "address"
        },
        {
          "internalType": "address",
          "name": "to",
          "type": "address"
        },
        {
          "internalType": "uint256",
          "name": "tokenId",
          "type": "uint256"
        },
        {
          "internalType": "bytes",
          "name": "_data",
          "type": "bytes"
        }
      ],
      "name": "safeTransferFrom",
      "outputs": [],
      "stateMutability": "nonpayable",
      "type": "function"
    },
    {
      "inputs": [
        {
          "internalType": "address",
          "name": "operator",
          "type": "address"
        },
        {
          "internalType": "bool",
          "name": "approved",
          "type": "bool"
        }
      ],
      "name": "setApprovalForAll",
      "outputs": [],
      "stateMutability": "nonpayable",
      "type": "function"
    },
    {
      "inputs": [
        {
          "internalType": "bytes4",
          "name": "interfaceId",
          "type": "bytes4"
        }
      ],
      "name": "supportsInterface",
      "outputs": [
        {
          "internalType": "bool",
          "name": "",
          "type": "bool"
        }
      ],
      "stateMutability": "view",
      "type": "function"
    },
    {
      "inputs": [],
      "name": "symbol",
      "outputs": [
        {
          "internalType": "string",
          "name": "",
          "type": "string"
        }
      ],
      "stateMutability": "view",
      "type": "function"
    },
    {
      "inputs": [
        {
          "internalType": "uint256",
          "name": "",
          "type": "uint256"
        }
      ],
      "name": "tokenIdToPrice",
      "outputs": [
        {
          "internalType": "uint256",
          "name": "",
          "type": "uint256"
        }
      ],
      "stateMutability": "view",
      "type": "function"
    },
    {
      "inputs": [
        {
          "internalType": "uint256",
          "name": "tokenId",
          "type": "uint256"
        }
      ],
      "name": "tokenURI",
      "outputs": [
        {
          "internalType": "string",
          "name": "",
          "type": "string"
        }
      ],
      "stateMutability": "view",
      "type": "function"
    },
    {
      "inputs": [
        {
          "internalType": "address",
          "name": "from",
          "type": "address"
        },
        {
          "internalType": "address",
          "name": "to",
          "type": "address"
        },
        {
          "internalType": "uint256",
          "name": "tokenId",
          "type": "uint256"
        }
      ],
      "name": "transferFrom",
      "outputs": [],
      "stateMutability": "nonpayable",
      "type": "function"
    }
  ],
  "bytecode": "0x60806040523480156200001157600080fd5b506040518060400160405280600981526020017f506978656c6c4e465400000000000000000000000000000000000000000000008152506040518060400160405280600381526020017f4e46540000000000000000000000000000000000000000000000000000000000815250816000908051906020019062000096929190620000b8565b508060019080519060200190620000af929190620000b8565b505050620001cd565b828054620000c69062000168565b90600052602060002090601f016020900481019282620000ea576000855562000136565b82601f106200010557805160ff191683800117855562000136565b8280016001018555821562000136579182015b828111156200013557825182559160200191906001019062000118565b5b50905062000145919062000149565b5090565b5b80821115620001645760008160009055506001016200014a565b5090565b600060028204905060018216806200018157607f821691505b602082108114156200019857620001976200019e565b5b50919050565b7f4e487b7100000000000000000000000000000000000000000000000000000000600052602260045260246000fd5b6130ce80620001dd6000396000f3fe6080604052600436106101095760003560e01c806395d89b4111610095578063c87b56dd11610064578063c87b56dd1461036a578063d4991312146103a7578063e985e9c5146103d0578063eacabe141461040d578063f4812eb91461044a57610109565b806395d89b41146102c4578063a22cb465146102ef578063b88d4fde14610318578063bbb5e8d31461034157610109565b806323b872dd116100dc57806323b872dd146101dc57806342842e0e1461020557806351ed82881461022e5780636352211e1461024a57806370a082311461028757610109565b806301ffc9a71461010e57806306fdde031461014b578063081812fc14610176578063095ea7b3146101b3575b600080fd5b34801561011a57600080fd5b506101356004803603810190610130919061206f565b610487565b60405161014291906129a6565b60405180910390f35b34801561015757600080fd5b50610160610569565b60405161016d91906129c1565b60405180910390f35b34801561018257600080fd5b5061019d600480360381019061019891906120c1565b6105fb565b6040516101aa9190612908565b60405180910390f35b3480156101bf57600080fd5b506101da60048036038101906101d59190612033565b610680565b005b3480156101e857600080fd5b5061020360048036038101906101fe9190611ed9565b610798565b005b34801561021157600080fd5b5061022c60048036038101906102279190611ed9565b6107f8565b005b610248600480360381019061024391906120c1565b610818565b005b34801561025657600080fd5b50610271600480360381019061026c91906120c1565b61096d565b60405161027e9190612908565b60405180910390f35b34801561029357600080fd5b506102ae60048036038101906102a99190611e74565b610a1f565b6040516102bb9190612c63565b60405180910390f35b3480156102d057600080fd5b506102d9610ad7565b6040516102e691906129c1565b60405180910390f35b3480156102fb57600080fd5b5061031660048036038101906103119190611fa3565b610b69565b005b34801561032457600080fd5b5061033f600480360381019061033a9190611f28565b610b7f565b005b34801561034d57600080fd5b50610368600480360381019061036391906120ea565b610be1565b005b34801561037657600080fd5b50610391600480360381019061038c91906120c1565b610cb6565b60405161039e91906129c1565b60405180910390f35b3480156103b357600080fd5b506103ce60048036038101906103c991906120c1565b610e08565b005b3480156103dc57600080fd5b506103f760048036038101906103f29190611e9d565b610e9a565b60405161040491906129a6565b60405180910390f35b34801561041957600080fd5b50610434600480360381019061042f9190611fdf565b610f2e565b6040516104419190612c63565b60405180910390f35b34801561045657600080fd5b50610471600480360381019061046c91906120c1565b610f66565b60405161047e9190612c63565b60405180910390f35b60007f80ac58cd000000000000000000000000000000000000000000000000000000007bffffffffffffffffffffffffffffffffffffffffffffffffffffffff1916827bffffffffffffffffffffffffffffffffffffffffffffffffffffffff1916148061055257507f5b5e139f000000000000000000000000000000000000000000000000000000007bffffffffffffffffffffffffffffffffffffffffffffffffffffffff1916827bffffffffffffffffffffffffffffffffffffffffffffffffffffffff1916145b80610562575061056182610f7e565b5b9050919050565b60606000805461057890612ec3565b80601f01602080910402602001604051908101604052809291908181526020018280546105a490612ec3565b80156105f15780601f106105c6576101008083540402835291602001916105f1565b820191906000526020600020905b8154815290600101906020018083116105d457829003601f168201915b5050505050905090565b600061060682610fe8565b610645576040517f08c379a000000000000000000000000000000000000000000000000000000000815260040161063c90612b83565b60405180910390fd5b6004600083815260200190815260200160002060009054906101000a900473ffffffffffffffffffffffffffffffffffffffff169050919050565b600061068b8261096d565b90508073ffffffffffffffffffffffffffffffffffffffff168373ffffffffffffffffffffffffffffffffffffffff1614156106fc576040517f08c379a00000000000000000000000000000000000000000000000000000000081526004016106f390612c03565b60405180910390fd5b8073ffffffffffffffffffffffffffffffffffffffff1661071b611054565b73ffffffffffffffffffffffffffffffffffffffff16148061074a575061074981610744611054565b610e9a565b5b610789576040517f08c379a000000000000000000000000000000000000000000000000000000000815260040161078090612ac3565b60405180910390fd5b610793838361105c565b505050565b6107a96107a3611054565b82611115565b6107e8576040517f08c379a00000000000000000000000000000000000000000000000000000000081526004016107df90612c43565b60405180910390fd5b6107f38383836111f3565b505050565b61081383838360405180602001604052806000815250610b7f565b505050565b60006007600083815260200190815260200160002054905060008111610873576040517f08c379a000000000000000000000000000000000000000000000000000000000815260040161086a90612a23565b60405180910390fd5b8034146108b5576040517f08c379a00000000000000000000000000000000000000000000000000000000081526004016108ac90612ba3565b60405180910390fd5b60006108c08361096d565b90506108cd8133856111f3565b600060076000858152602001908152602001600020819055508073ffffffffffffffffffffffffffffffffffffffff166108fc349081150290604051600060405180830381858888f1935050505015801561092c573d6000803e3d6000fd5b507fcd1344421cbf20fee1675696dc29224085bc8d25b5d4e70fc4fb7a68c76af49481333460405161096093929190612923565b60405180910390a1505050565b6000806002600084815260200190815260200160002060009054906101000a900473ffffffffffffffffffffffffffffffffffffffff169050600073ffffffffffffffffffffffffffffffffffffffff168173ffffffffffffffffffffffffffffffffffffffff161415610a16576040517f08c379a0000000000000000000000000000000000000000000000000000000008152600401610a0d90612b03565b60405180910390fd5b80915050919050565b60008073ffffffffffffffffffffffffffffffffffffffff168273ffffffffffffffffffffffffffffffffffffffff161415610a90576040517f08c379a0000000000000000000000000000000000000000000000000000000008152600401610a8790612ae3565b60405180910390fd5b600360008373ffffffffffffffffffffffffffffffffffffffff1673ffffffffffffffffffffffffffffffffffffffff168152602001908152602001600020549050919050565b606060018054610ae690612ec3565b80601f0160208091040260200160405190810160405280929190818152602001828054610b1290612ec3565b8015610b5f5780601f10610b3457610100808354040283529160200191610b5f565b820191906000526020600020905b815481529060010190602001808311610b4257829003601f168201915b5050505050905090565b610b7b610b74611054565b838361144f565b5050565b610b90610b8a611054565b83611115565b610bcf576040517f08c379a0000000000000000000000000000000000000000000000000000000008152600401610bc690612c43565b60405180910390fd5b610bdb848484846115bc565b50505050565b610bea8261096d565b73ffffffffffffffffffffffffffffffffffffffff163373ffffffffffffffffffffffffffffffffffffffff1614610c57576040517f08c379a0000000000000000000000000000000000000000000000000000000008152600401610c4e90612c23565b60405180910390fd5b60008111610c9a576040517f08c379a0000000000000000000000000000000000000000000000000000000008152600401610c91906129e3565b60405180910390fd5b8060076000848152602001908152602001600020819055505050565b6060610cc182610fe8565b610d00576040517f08c379a0000000000000000000000000000000000000000000000000000000008152600401610cf790612b63565b60405180910390fd5b6000600660008481526020019081526020016000208054610d2090612ec3565b80601f0160208091040260200160405190810160405280929190818152602001828054610d4c90612ec3565b8015610d995780601f10610d6e57610100808354040283529160200191610d99565b820191906000526020600020905b815481529060010190602001808311610d7c57829003601f168201915b505050505090506000610daa611618565b9050600081511415610dc0578192505050610e03565b600082511115610df5578082604051602001610ddd9291906128e4565b60405160208183030381529060405292505050610e03565b610dfe8461162f565b925050505b919050565b610e118161096d565b73ffffffffffffffffffffffffffffffffffffffff163373ffffffffffffffffffffffffffffffffffffffff1614610e7e576040517f08c379a0000000000000000000000000000000000000000000000000000000008152600401610e7590612c23565b60405180910390fd5b6000600760008381526020019081526020016000208190555050565b6000600560008473ffffffffffffffffffffffffffffffffffffffff1673ffffffffffffffffffffffffffffffffffffffff16815260200190815260200160002060008373ffffffffffffffffffffffffffffffffffffffff1673ffffffffffffffffffffffffffffffffffffffff16815260200190815260200160002060009054906101000a900460ff16905092915050565b6000610f3a60086116d6565b6000610f4660086116ec565b9050610f5284826116fa565b610f5c81846118c8565b8091505092915050565b60076020528060005260406000206000915090505481565b60007f01ffc9a7000000000000000000000000000000000000000000000000000000007bffffffffffffffffffffffffffffffffffffffffffffffffffffffff1916827bffffffffffffffffffffffffffffffffffffffffffffffffffffffff1916149050919050565b60008073ffffffffffffffffffffffffffffffffffffffff166002600084815260200190815260200160002060009054906101000a900473ffffffffffffffffffffffffffffffffffffffff1673ffffffffffffffffffffffffffffffffffffffff1614159050919050565b600033905090565b816004600083815260200190815260200160002060006101000a81548173ffffffffffffffffffffffffffffffffffffffff021916908373ffffffffffffffffffffffffffffffffffffffff160217905550808273ffffffffffffffffffffffffffffffffffffffff166110cf8361096d565b73ffffffffffffffffffffffffffffffffffffffff167f8c5be1e5ebec7d5bd14f71427d1e84f3dd0314c0f7b2291e5b200ac8c7c3b92560405160405180910390a45050565b600061112082610fe8565b61115f576040517f08c379a000000000000000000000000000000000000000000000000000000000815260040161115690612aa3565b60405180910390fd5b600061116a8361096d565b90508073ffffffffffffffffffffffffffffffffffffffff168473ffffffffffffffffffffffffffffffffffffffff1614806111d957508373ffffffffffffffffffffffffffffffffffffffff166111c1846105fb565b73ffffffffffffffffffffffffffffffffffffffff16145b806111ea57506111e98185610e9a565b5b91505092915050565b8273ffffffffffffffffffffffffffffffffffffffff166112138261096d565b73ffffffffffffffffffffffffffffffffffffffff1614611269576040517f08c379a000000000000000000000000000000000000000000000000000000000815260040161126090612bc3565b60405180910390fd5b600073ffffffffffffffffffffffffffffffffffffffff168273ffffffffffffffffffffffffffffffffffffffff1614156112d9576040517f08c379a00000000000000000000000000000000000000000000000000000000081526004016112d090612a63565b60405180910390fd5b6112e483838361193c565b6112ef60008261105c565b6001600360008573ffffffffffffffffffffffffffffffffffffffff1673ffffffffffffffffffffffffffffffffffffffff168152602001908152602001600020600082825461133f9190612dd9565b925050819055506001600360008473ffffffffffffffffffffffffffffffffffffffff1673ffffffffffffffffffffffffffffffffffffffff16815260200190815260200160002060008282546113969190612d52565b92505081905550816002600083815260200190815260200160002060006101000a81548173ffffffffffffffffffffffffffffffffffffffff021916908373ffffffffffffffffffffffffffffffffffffffff160217905550808273ffffffffffffffffffffffffffffffffffffffff168473ffffffffffffffffffffffffffffffffffffffff167fddf252ad1be2c89b69c2b068fc378daa952ba7f163c4a11628f55a4df523b3ef60405160405180910390a4505050565b8173ffffffffffffffffffffffffffffffffffffffff168373ffffffffffffffffffffffffffffffffffffffff1614156114be576040517f08c379a00000000000000000000000000000000000000000000000000000000081526004016114b590612a83565b60405180910390fd5b80600560008573ffffffffffffffffffffffffffffffffffffffff1673ffffffffffffffffffffffffffffffffffffffff16815260200190815260200160002060008473ffffffffffffffffffffffffffffffffffffffff1673ffffffffffffffffffffffffffffffffffffffff16815260200190815260200160002060006101000a81548160ff0219169083151502179055508173ffffffffffffffffffffffffffffffffffffffff168373ffffffffffffffffffffffffffffffffffffffff167f17307eab39ab6107e8899845ad3d59bd9653f200f220920489ca2b5937696c31836040516115af91906129a6565b60405180910390a3505050565b6115c78484846111f3565b6115d384848484611941565b611612576040517f08c379a000000000000000000000000000000000000000000000000000000000815260040161160990612a03565b60405180910390fd5b50505050565b606060405180602001604052806000815250905090565b606061163a82610fe8565b611679576040517f08c379a000000000000000000000000000000000000000000000000000000000815260040161167090612be3565b60405180910390fd5b6000611683611618565b905060008151116116a357604051806020016040528060008152506116ce565b806116ad84611ad8565b6040516020016116be9291906128e4565b6040516020818303038152906040525b915050919050565b6001816000016000828254019250508190555050565b600081600001549050919050565b600073ffffffffffffffffffffffffffffffffffffffff168273ffffffffffffffffffffffffffffffffffffffff16141561176a576040517f08c379a000000000000000000000000000000000000000000000000000000000815260040161176190612b43565b60405180910390fd5b61177381610fe8565b156117b3576040517f08c379a00000000000000000000000000000000000000000000000000000000081526004016117aa90612a43565b60405180910390fd5b6117bf6000838361193c565b6001600360008473ffffffffffffffffffffffffffffffffffffffff1673ffffffffffffffffffffffffffffffffffffffff168152602001908152602001600020600082825461180f9190612d52565b92505081905550816002600083815260200190815260200160002060006101000a81548173ffffffffffffffffffffffffffffffffffffffff021916908373ffffffffffffffffffffffffffffffffffffffff160217905550808273ffffffffffffffffffffffffffffffffffffffff16600073ffffffffffffffffffffffffffffffffffffffff167fddf252ad1be2c89b69c2b068fc378daa952ba7f163c4a11628f55a4df523b3ef60405160405180910390a45050565b6118d182610fe8565b611910576040517f08c379a000000000000000000000000000000000000000000000000000000000815260040161190790612b23565b60405180910390fd5b80600660008481526020019081526020016000209080519060200190611937929190611c98565b505050565b505050565b60006119628473ffffffffffffffffffffffffffffffffffffffff16611c85565b15611acb578373ffffffffffffffffffffffffffffffffffffffff1663150b7a0261198b611054565b8786866040518563ffffffff1660e01b81526004016119ad949392919061295a565b602060405180830381600087803b1580156119c757600080fd5b505af19250505080156119f857506040513d601f19601f820116820180604052508101906119f59190612098565b60015b611a7b573d8060008114611a28576040519150601f19603f3d011682016040523d82523d6000602084013e611a2d565b606091505b50600081511415611a73576040517f08c379a0000000000000000000000000000000000000000000000000000000008152600401611a6a90612a03565b60405180910390fd5b805181602001fd5b63150b7a0260e01b7bffffffffffffffffffffffffffffffffffffffffffffffffffffffff1916817bffffffffffffffffffffffffffffffffffffffffffffffffffffffff191614915050611ad0565b600190505b949350505050565b60606000821415611b20576040518060400160405280600181526020017f30000000000000000000000000000000000000000000000000000000000000008152509050611c80565b600082905060005b60008214611b52578080611b3b90612ef5565b915050600a82611b4b9190612da8565b9150611b28565b60008167ffffffffffffffff811115611b94577f4e487b7100000000000000000000000000000000000000000000000000000000600052604160045260246000fd5b6040519080825280601f01601f191660200182016040528015611bc65781602001600182028036833780820191505090505b5090505b60008514611c7957600182611bdf9190612dd9565b9150600a85611bee9190612f3e565b6030611bfa9190612d52565b60f81b818381518110611c36577f4e487b7100000000000000000000000000000000000000000000000000000000600052603260045260246000fd5b60200101907effffffffffffffffffffffffffffffffffffffffffffffffffffffffffffff1916908160001a905350600a85611c729190612da8565b9450611bca565b8093505050505b919050565b600080823b905060008111915050919050565b828054611ca490612ec3565b90600052602060002090601f016020900481019282611cc65760008555611d0d565b82601f10611cdf57805160ff1916838001178555611d0d565b82800160010185558215611d0d579182015b82811115611d0c578251825591602001919060010190611cf1565b5b509050611d1a9190611d1e565b5090565b5b80821115611d37576000816000905550600101611d1f565b5090565b6000611d4e611d4984612caf565b612c7e565b905082815260208101848484011115611d6657600080fd5b611d71848285612e81565b509392505050565b6000611d8c611d8784612cdf565b612c7e565b905082815260208101848484011115611da457600080fd5b611daf848285612e81565b509392505050565b600081359050611dc68161303c565b92915050565b600081359050611ddb81613053565b92915050565b600081359050611df08161306a565b92915050565b600081519050611e058161306a565b92915050565b600082601f830112611e1c57600080fd5b8135611e2c848260208601611d3b565b91505092915050565b600082601f830112611e4657600080fd5b8135611e56848260208601611d79565b91505092915050565b600081359050611e6e81613081565b92915050565b600060208284031215611e8657600080fd5b6000611e9484828501611db7565b91505092915050565b60008060408385031215611eb057600080fd5b6000611ebe85828601611db7565b9250506020611ecf85828601611db7565b9150509250929050565b600080600060608486031215611eee57600080fd5b6000611efc86828701611db7565b9350506020611f0d86828701611db7565b9250506040611f1e86828701611e5f565b9150509250925092565b60008060008060808587031215611f3e57600080fd5b6000611f4c87828801611db7565b9450506020611f5d87828801611db7565b9350506040611f6e87828801611e5f565b925050606085013567ffffffffffffffff811115611f8b57600080fd5b611f9787828801611e0b565b91505092959194509250565b60008060408385031215611fb657600080fd5b6000611fc485828601611db7565b9250506020611fd585828601611dcc565b9150509250929050565b60008060408385031215611ff257600080fd5b600061200085828601611db7565b925050602083013567ffffffffffffffff81111561201d57600080fd5b61202985828601611e35565b9150509250929050565b6000806040838503121561204657600080fd5b600061205485828601611db7565b925050602061206585828601611e5f565b9150509250929050565b60006020828403121561208157600080fd5b600061208f84828501611de1565b91505092915050565b6000602082840312156120aa57600080fd5b60006120b884828501611df6565b91505092915050565b6000602082840312156120d357600080fd5b60006120e184828501611e5f565b91505092915050565b600080604083850312156120fd57600080fd5b600061210b85828601611e5f565b925050602061211c85828601611e5f565b9150509250929050565b61212f81612e0d565b82525050565b61213e81612e1f565b82525050565b600061214f82612d0f565b6121598185612d25565b9350612169818560208601612e90565b6121728161302b565b840191505092915050565b600061218882612d1a565b6121928185612d36565b93506121a2818560208601612e90565b6121ab8161302b565b840191505092915050565b60006121c182612d1a565b6121cb8185612d47565b93506121db818560208601612e90565b80840191505092915050565b60006121f4601183612d36565b91507f50726963652063616e6e6f7420626520300000000000000000000000000000006000830152602082019050919050565b6000612234603283612d36565b91507f4552433732313a207472616e7366657220746f206e6f6e20455243373231526560008301527f63656976657220696d706c656d656e74657200000000000000000000000000006020830152604082019050919050565b600061229a601a83612d36565b91507f5468697320746f6b656e206973206e6f7420666f722073616c650000000000006000830152602082019050919050565b60006122da601c83612d36565b91507f4552433732313a20746f6b656e20616c7265616479206d696e746564000000006000830152602082019050919050565b600061231a602483612d36565b91507f4552433732313a207472616e7366657220746f20746865207a65726f2061646460008301527f72657373000000000000000000000000000000000000000000000000000000006020830152604082019050919050565b6000612380601983612d36565b91507f4552433732313a20617070726f766520746f2063616c6c6572000000000000006000830152602082019050919050565b60006123c0602c83612d36565b91507f4552433732313a206f70657261746f7220717565727920666f72206e6f6e657860008301527f697374656e7420746f6b656e00000000000000000000000000000000000000006020830152604082019050919050565b6000612426603883612d36565b91507f4552433732313a20617070726f76652063616c6c6572206973206e6f74206f7760008301527f6e6572206e6f7220617070726f76656420666f7220616c6c00000000000000006020830152604082019050919050565b600061248c602a83612d36565b91507f4552433732313a2062616c616e636520717565727920666f7220746865207a6560008301527f726f2061646472657373000000000000000000000000000000000000000000006020830152604082019050919050565b60006124f2602983612d36565b91507f4552433732313a206f776e657220717565727920666f72206e6f6e657869737460008301527f656e7420746f6b656e00000000000000000000000000000000000000000000006020830152604082019050919050565b6000612558602e83612d36565b91507f45524337323155524953746f726167653a2055524920736574206f66206e6f6e60008301527f6578697374656e7420746f6b656e0000000000000000000000000000000000006020830152604082019050919050565b60006125be602083612d36565b91507f4552433732313a206d696e7420746f20746865207a65726f20616464726573736000830152602082019050919050565b60006125fe603183612d36565b91507f45524337323155524953746f726167653a2055524920717565727920666f722060008301527f6e6f6e6578697374656e7420746f6b656e0000000000000000000000000000006020830152604082019050919050565b6000612664602c83612d36565b91507f4552433732313a20617070726f76656420717565727920666f72206e6f6e657860008301527f697374656e7420746f6b656e00000000000000000000000000000000000000006020830152604082019050919050565b60006126ca600f83612d36565b91507f496e636f72726563742076616c756500000000000000000000000000000000006000830152602082019050919050565b600061270a602983612d36565b91507f4552433732313a207472616e73666572206f6620746f6b656e2074686174206960008301527f73206e6f74206f776e00000000000000000000000000000000000000000000006020830152604082019050919050565b6000612770602f83612d36565b91507f4552433732314d657461646174613a2055524920717565727920666f72206e6f60008301527f6e6578697374656e7420746f6b656e00000000000000000000000000000000006020830152604082019050919050565b60006127d6602183612d36565b91507f4552433732313a20617070726f76616c20746f2063757272656e74206f776e6560008301527f72000000000000000000000000000000000000000000000000000000000000006020830152604082019050919050565b600061283c601783612d36565b91507f4e6f74206f776e6572206f66207468697320746f6b656e0000000000000000006000830152602082019050919050565b600061287c603183612d36565b91507f4552433732313a207472616e736665722063616c6c6572206973206e6f74206f60008301527f776e6572206e6f7220617070726f7665640000000000000000000000000000006020830152604082019050919050565b6128de81612e77565b82525050565b60006128f082856121b6565b91506128fc82846121b6565b91508190509392505050565b600060208201905061291d6000830184612126565b92915050565b60006060820190506129386000830186612126565b6129456020830185612126565b61295260408301846128d5565b949350505050565b600060808201905061296f6000830187612126565b61297c6020830186612126565b61298960408301856128d5565b818103606083015261299b8184612144565b905095945050505050565b60006020820190506129bb6000830184612135565b92915050565b600060208201905081810360008301526129db818461217d565b905092915050565b600060208201905081810360008301526129fc816121e7565b9050919050565b60006020820190508181036000830152612a1c81612227565b9050919050565b60006020820190508181036000830152612a3c8161228d565b9050919050565b60006020820190508181036000830152612a5c816122cd565b9050919050565b60006020820190508181036000830152612a7c8161230d565b9050919050565b60006020820190508181036000830152612a9c81612373565b9050919050565b60006020820190508181036000830152612abc816123b3565b9050919050565b60006020820190508181036000830152612adc81612419565b9050919050565b60006020820190508181036000830152612afc8161247f565b9050919050565b60006020820190508181036000830152612b1c816124e5565b9050919050565b60006020820190508181036000830152612b3c8161254b565b9050919050565b60006020820190508181036000830152612b5c816125b1565b9050919050565b60006020820190508181036000830152612b7c816125f1565b9050919050565b60006020820190508181036000830152612b9c81612657565b9050919050565b60006020820190508181036000830152612bbc816126bd565b9050919050565b60006020820190508181036000830152612bdc816126fd565b9050919050565b60006020820190508181036000830152612bfc81612763565b9050919050565b60006020820190508181036000830152612c1c816127c9565b9050919050565b60006020820190508181036000830152612c3c8161282f565b9050919050565b60006020820190508181036000830152612c5c8161286f565b9050919050565b6000602082019050612c7860008301846128d5565b92915050565b6000604051905081810181811067ffffffffffffffff82111715612ca557612ca4612ffc565b5b8060405250919050565b600067ffffffffffffffff821115612cca57612cc9612ffc565b5b601f19601f8301169050602081019050919050565b600067ffffffffffffffff821115612cfa57612cf9612ffc565b5b601f19601f8301169050602081019050919050565b600081519050919050565b600081519050919050565b600082825260208201905092915050565b600082825260208201905092915050565b600081905092915050565b6000612d5d82612e77565b9150612d6883612e77565b9250827fffffffffffffffffffffffffffffffffffffffffffffffffffffffffffffffff03821115612d9d57612d9c612f6f565b5b828201905092915050565b6000612db382612e77565b9150612dbe83612e77565b925082612dce57612dcd612f9e565b5b828204905092915050565b6000612de482612e77565b9150612def83612e77565b925082821015612e0257612e01612f6f565b5b828203905092915050565b6000612e1882612e57565b9050919050565b60008115159050919050565b60007fffffffff0000000000000000000000000000000000000000000000000000000082169050919050565b600073ffffffffffffffffffffffffffffffffffffffff82169050919050565b6000819050919050565b82818337600083830152505050565b60005b83811015612eae578082015181840152602081019050612e93565b83811115612ebd576000848401525b50505050565b60006002820490506001821680612edb57607f821691505b60208210811415612eef57612eee612fcd565b5b50919050565b6000612f0082612e77565b91507fffffffffffffffffffffffffffffffffffffffffffffffffffffffffffffffff821415612f3357612f32612f6f565b5b600182019050919050565b6000612f4982612e77565b9150612f5483612e77565b925082612f6457612f63612f9e565b5b828206905092915050565b7f4e487b7100000000000000000000000000000000000000000000000000000000600052601160045260246000fd5b7f4e487b7100000000000000000000000000000000000000000000000000000000600052601260045260246000fd5b7f4e487b7100000000000000000000000000000000000000000000000000000000600052602260045260246000fd5b7f4e487b7100000000000000000000000000000000000000000000000000000000600052604160045260246000fd5b6000601f19601f8301169050919050565b61304581612e0d565b811461305057600080fd5b50565b61305c81612e1f565b811461306757600080fd5b50565b61307381612e2b565b811461307e57600080fd5b50565b61308a81612e77565b811461309557600080fd5b5056fea2646970667358221220b7c6c7cb8c81e27604a1fcd07562a585f1c5893ec3dce44e887eae65e68fae7564736f6c63430008000033",
  "linkReferences": {},
  "deployedLinkReferences": {}
}