{
  "_format": "hh-sol-artifact-1",
  "contractName": "PixellNFT",
  "sourceName": "contracts/NFT.sol",
  "abi": [
    {
      "inputs": [],
      "stateMutability": "nonpayable",
      "type": "constructor"
    },
    {
      "anonymous": false,
      "inputs": [
        {
          "indexed": true,
          "internalType": "address",
          "name": "owner",
          "type": "address"
        },
        {
          "indexed": true,
          "internalType": "address",
          "name": "approved",
          "type": "address"
        },
        {
          "indexed": true,
          "internalType": "uint256",
          "name": "tokenId",
          "type": "uint256"
        }
      ],
      "name": "Approval",
      "type": "event"
    },
    {
      "anonymous": false,
      "inputs": [
        {
          "indexed": true,
          "internalType": "address",
          "name": "owner",
          "type": "address"
        },
        {
          "indexed": true,
          "internalType": "address",
          "name": "operator",
          "type": "address"
        },
        {
          "indexed": false,
          "internalType": "bool",
          "name": "approved",
          "type": "bool"
        }
      ],
      "name": "ApprovalForAll",
      "type": "event"
    },
    {
      "anonymous": false,
      "inputs": [
        {
          "indexed": false,
          "internalType": "address",
          "name": "_seller",
          "type": "address"
        },
        {
          "indexed": false,
          "internalType": "address",
          "name": "_buyer",
          "type": "address"
        },
        {
          "indexed": false,
          "internalType": "uint256",
          "name": "_price",
          "type": "uint256"
        }
      ],
      "name": "NFTBought",
      "type": "event"
    },
    {
      "anonymous": false,
      "inputs": [
        {
          "indexed": true,
          "internalType": "address",
          "name": "from",
          "type": "address"
        },
        {
          "indexed": true,
          "internalType": "address",
          "name": "to",
          "type": "address"
        },
        {
          "indexed": true,
          "internalType": "uint256",
          "name": "tokenId",
          "type": "uint256"
        }
      ],
      "name": "Transfer",
      "type": "event"
    },
    {
      "inputs": [
        {
          "internalType": "uint256",
          "name": "_tokenId",
          "type": "uint256"
        },
        {
          "internalType": "uint256",
          "name": "_price",
          "type": "uint256"
        }
      ],
      "name": "allowBuy",
      "outputs": [],
      "stateMutability": "nonpayable",
      "type": "function"
    },
    {
      "inputs": [
        {
          "internalType": "address",
          "name": "to",
          "type": "address"
        },
        {
          "internalType": "uint256",
          "name": "tokenId",
          "type": "uint256"
        }
      ],
      "name": "approve",
      "outputs": [],
      "stateMutability": "nonpayable",
      "type": "function"
    },
    {
      "inputs": [
        {
          "internalType": "address",
          "name": "owner",
          "type": "address"
        }
      ],
      "name": "balanceOf",
      "outputs": [
        {
          "internalType": "uint256",
          "name": "",
          "type": "uint256"
        }
      ],
      "stateMutability": "view",
      "type": "function"
    },
    {
      "inputs": [
        {
          "internalType": "uint256",
          "name": "_tokenId",
          "type": "uint256"
        }
      ],
      "name": "buyNFT",
      "outputs": [],
      "stateMutability": "payable",
      "type": "function"
    },
    {
      "inputs": [
        {
          "internalType": "uint256",
          "name": "_tokenId",
          "type": "uint256"
        }
      ],
      "name": "disallowBuy",
      "outputs": [],
      "stateMutability": "nonpayable",
      "type": "function"
    },
    {
      "inputs": [
        {
          "internalType": "uint256",
          "name": "tokenId",
          "type": "uint256"
        }
      ],
      "name": "getApproved",
      "outputs": [
        {
          "internalType": "address",
          "name": "",
          "type": "address"
        }
      ],
      "stateMutability": "view",
      "type": "function"
    },
    {
      "inputs": [
        {
          "internalType": "address",
          "name": "owner",
          "type": "address"
        },
        {
          "internalType": "address",
          "name": "operator",
          "type": "address"
        }
      ],
      "name": "isApprovedForAll",
      "outputs": [
        {
          "internalType": "bool",
          "name": "",
          "type": "bool"
        }
      ],
      "stateMutability": "view",
      "type": "function"
    },
    {
      "inputs": [
        {
          "internalType": "string",
          "name": "tokenURI",
          "type": "string"
        }
      ],
      "name": "mintNFT",
      "outputs": [
        {
          "internalType": "uint256",
          "name": "",
          "type": "uint256"
        }
      ],
      "stateMutability": "nonpayable",
      "type": "function"
    },
    {
      "inputs": [],
      "name": "name",
      "outputs": [
        {
          "internalType": "string",
          "name": "",
          "type": "string"
        }
      ],
      "stateMutability": "view",
      "type": "function"
    },
    {
      "inputs": [
        {
          "internalType": "uint256",
          "name": "tokenId",
          "type": "uint256"
        }
      ],
      "name": "ownerOf",
      "outputs": [
        {
          "internalType": "address",
          "name": "",
          "type": "address"
        }
      ],
      "stateMutability": "view",
      "type": "function"
    },
    {
      "inputs": [
        {
          "internalType": "address",
          "name": "from",
          "type": "address"
        },
        {
          "internalType": "address",
          "name": "to",
          "type": "address"
        },
        {
          "internalType": "uint256",
          "name": "tokenId",
          "type": "uint256"
        }
      ],
      "name": "safeTransferFrom",
      "outputs": [],
      "stateMutability": "nonpayable",
      "type": "function"
    },
    {
      "inputs": [
        {
          "internalType": "address",
          "name": "from",
          "type": "address"
        },
        {
          "internalType": "address",
          "name": "to",
          "type": "address"
        },
        {
          "internalType": "uint256",
          "name": "tokenId",
          "type": "uint256"
        },
        {
          "internalType": "bytes",
          "name": "_data",
          "type": "bytes"
        }
      ],
      "name": "safeTransferFrom",
      "outputs": [],
      "stateMutability": "nonpayable",
      "type": "function"
    },
    {
      "inputs": [
        {
          "internalType": "address",
          "name": "operator",
          "type": "address"
        },
        {
          "internalType": "bool",
          "name": "approved",
          "type": "bool"
        }
      ],
      "name": "setApprovalForAll",
      "outputs": [],
      "stateMutability": "nonpayable",
      "type": "function"
    },
    {
      "inputs": [
        {
          "internalType": "bytes4",
          "name": "interfaceId",
          "type": "bytes4"
        }
      ],
      "name": "supportsInterface",
      "outputs": [
        {
          "internalType": "bool",
          "name": "",
          "type": "bool"
        }
      ],
      "stateMutability": "view",
      "type": "function"
    },
    {
      "inputs": [],
      "name": "symbol",
      "outputs": [
        {
          "internalType": "string",
          "name": "",
          "type": "string"
        }
      ],
      "stateMutability": "view",
      "type": "function"
    },
    {
      "inputs": [
        {
          "internalType": "uint256",
          "name": "",
          "type": "uint256"
        }
      ],
      "name": "tokenIdToPrice",
      "outputs": [
        {
          "internalType": "uint256",
          "name": "",
          "type": "uint256"
        }
      ],
      "stateMutability": "view",
      "type": "function"
    },
    {
      "inputs": [
        {
          "internalType": "uint256",
          "name": "tokenId",
          "type": "uint256"
        }
      ],
      "name": "tokenURI",
      "outputs": [
        {
          "internalType": "string",
          "name": "",
          "type": "string"
        }
      ],
      "stateMutability": "view",
      "type": "function"
    },
    {
      "inputs": [
        {
          "internalType": "address",
          "name": "from",
          "type": "address"
        },
        {
          "internalType": "address",
          "name": "to",
          "type": "address"
        },
        {
          "internalType": "uint256",
          "name": "tokenId",
          "type": "uint256"
        }
      ],
      "name": "transferFrom",
      "outputs": [],
      "stateMutability": "nonpayable",
      "type": "function"
    }
  ],
  "bytecode": "0x60806040523480156200001157600080fd5b506040518060400160405280600981526020017f506978656c6c4e465400000000000000000000000000000000000000000000008152506040518060400160405280600381526020017f4e46540000000000000000000000000000000000000000000000000000000000815250816000908051906020019062000096929190620000b8565b508060019080519060200190620000af929190620000b8565b505050620001cd565b828054620000c69062000168565b90600052602060002090601f016020900481019282620000ea576000855562000136565b82601f106200010557805160ff191683800117855562000136565b8280016001018555821562000136579182015b828111156200013557825182559160200191906001019062000118565b5b50905062000145919062000149565b5090565b5b80821115620001645760008160009055506001016200014a565b5090565b600060028204905060018216806200018157607f821691505b602082108114156200019857620001976200019e565b5b50919050565b7f4e487b7100000000000000000000000000000000000000000000000000000000600052602260045260246000fd5b61318980620001dd6000396000f3fe6080604052600436106101095760003560e01c806395d89b4111610095578063c87b56dd11610064578063c87b56dd1461036a578063d4991312146103a7578063e985e9c5146103d0578063f4812eb91461040d578063fb37e8831461044a57610109565b806395d89b41146102c4578063a22cb465146102ef578063b88d4fde14610318578063bbb5e8d31461034157610109565b806323b872dd116100dc57806323b872dd146101dc57806342842e0e1461020557806351ed82881461022e5780636352211e1461024a57806370a082311461028757610109565b806301ffc9a71461010e57806306fdde031461014b578063081812fc14610176578063095ea7b3146101b3575b600080fd5b34801561011a57600080fd5b5061013560048036038101906101309190612089565b610487565b6040516101429190612a41565b60405180910390f35b34801561015757600080fd5b50610160610569565b60405161016d9190612a5c565b60405180910390f35b34801561018257600080fd5b5061019d6004803603810190610198919061211c565b6105fb565b6040516101aa91906129a3565b60405180910390f35b3480156101bf57600080fd5b506101da60048036038101906101d5919061204d565b610680565b005b3480156101e857600080fd5b5061020360048036038101906101fe9190611f47565b610798565b005b34801561021157600080fd5b5061022c60048036038101906102279190611f47565b6107f8565b005b6102486004803603810190610243919061211c565b610818565b005b34801561025657600080fd5b50610271600480360381019061026c919061211c565b6109dc565b60405161027e91906129a3565b60405180910390f35b34801561029357600080fd5b506102ae60048036038101906102a99190611ee2565b610a8e565b6040516102bb9190612d1e565b60405180910390f35b3480156102d057600080fd5b506102d9610b46565b6040516102e69190612a5c565b60405180910390f35b3480156102fb57600080fd5b5061031660048036038101906103119190612011565b610bd8565b005b34801561032457600080fd5b5061033f600480360381019061033a9190611f96565b610bee565b005b34801561034d57600080fd5b5061036860048036038101906103639190612145565b610c50565b005b34801561037657600080fd5b50610391600480360381019061038c919061211c565b610d25565b60405161039e9190612a5c565b60405180910390f35b3480156103b357600080fd5b506103ce60048036038101906103c9919061211c565b610e77565b005b3480156103dc57600080fd5b506103f760048036038101906103f29190611f0b565b610f09565b6040516104049190612a41565b60405180910390f35b34801561041957600080fd5b50610434600480360381019061042f919061211c565b610f9d565b6040516104419190612d1e565b60405180910390f35b34801561045657600080fd5b50610471600480360381019061046c91906120db565b610fb5565b60405161047e9190612d1e565b60405180910390f35b60007f80ac58cd000000000000000000000000000000000000000000000000000000007bffffffffffffffffffffffffffffffffffffffffffffffffffffffff1916827bffffffffffffffffffffffffffffffffffffffffffffffffffffffff1916148061055257507f5b5e139f000000000000000000000000000000000000000000000000000000007bffffffffffffffffffffffffffffffffffffffffffffffffffffffff1916827bffffffffffffffffffffffffffffffffffffffffffffffffffffffff1916145b80610562575061056182610fec565b5b9050919050565b60606000805461057890612f7e565b80601f01602080910402602001604051908101604052809291908181526020018280546105a490612f7e565b80156105f15780601f106105c6576101008083540402835291602001916105f1565b820191906000526020600020905b8154815290600101906020018083116105d457829003601f168201915b5050505050905090565b600061060682611056565b610645576040517f08c379a000000000000000000000000000000000000000000000000000000000815260040161063c90612c3e565b60405180910390fd5b6004600083815260200190815260200160002060009054906101000a900473ffffffffffffffffffffffffffffffffffffffff169050919050565b600061068b826109dc565b90508073ffffffffffffffffffffffffffffffffffffffff168373ffffffffffffffffffffffffffffffffffffffff1614156106fc576040517f08c379a00000000000000000000000000000000000000000000000000000000081526004016106f390612cbe565b60405180910390fd5b8073ffffffffffffffffffffffffffffffffffffffff1661071b6110c2565b73ffffffffffffffffffffffffffffffffffffffff16148061074a5750610749816107446110c2565b610f09565b5b610789576040517f08c379a000000000000000000000000000000000000000000000000000000000815260040161078090612b5e565b60405180910390fd5b61079383836110ca565b505050565b6107a96107a36110c2565b82611183565b6107e8576040517f08c379a00000000000000000000000000000000000000000000000000000000081526004016107df90612cfe565b60405180910390fd5b6107f3838383611261565b505050565b61081383838360405180602001604052806000815250610bee565b505050565b60006007600083815260200190815260200160002054905060008111610873576040517f08c379a000000000000000000000000000000000000000000000000000000000815260040161086a90612abe565b60405180910390fd5b8034146108b5576040517f08c379a00000000000000000000000000000000000000000000000000000000081526004016108ac90612c5e565b60405180910390fd5b60006108c0836109dc565b90508073ffffffffffffffffffffffffffffffffffffffff163373ffffffffffffffffffffffffffffffffffffffff161415610931576040517f08c379a000000000000000000000000000000000000000000000000000000000815260040161092890612bfe565b60405180910390fd5b61093c813385611261565b600060076000858152602001908152602001600020819055508073ffffffffffffffffffffffffffffffffffffffff166108fc349081150290604051600060405180830381858888f1935050505015801561099b573d6000803e3d6000fd5b507fcd1344421cbf20fee1675696dc29224085bc8d25b5d4e70fc4fb7a68c76af4948133346040516109cf939291906129be565b60405180910390a1505050565b6000806002600084815260200190815260200160002060009054906101000a900473ffffffffffffffffffffffffffffffffffffffff169050600073ffffffffffffffffffffffffffffffffffffffff168173ffffffffffffffffffffffffffffffffffffffff161415610a85576040517f08c379a0000000000000000000000000000000000000000000000000000000008152600401610a7c90612b9e565b60405180910390fd5b80915050919050565b60008073ffffffffffffffffffffffffffffffffffffffff168273ffffffffffffffffffffffffffffffffffffffff161415610aff576040517f08c379a0000000000000000000000000000000000000000000000000000000008152600401610af690612b7e565b60405180910390fd5b600360008373ffffffffffffffffffffffffffffffffffffffff1673ffffffffffffffffffffffffffffffffffffffff168152602001908152602001600020549050919050565b606060018054610b5590612f7e565b80601f0160208091040260200160405190810160405280929190818152602001828054610b8190612f7e565b8015610bce5780601f10610ba357610100808354040283529160200191610bce565b820191906000526020600020905b815481529060010190602001808311610bb157829003601f168201915b5050505050905090565b610bea610be36110c2565b83836114bd565b5050565b610bff610bf96110c2565b83611183565b610c3e576040517f08c379a0000000000000000000000000000000000000000000000000000000008152600401610c3590612cfe565b60405180910390fd5b610c4a8484848461162a565b50505050565b610c59826109dc565b73ffffffffffffffffffffffffffffffffffffffff163373ffffffffffffffffffffffffffffffffffffffff1614610cc6576040517f08c379a0000000000000000000000000000000000000000000000000000000008152600401610cbd90612cde565b60405180910390fd5b60008111610d09576040517f08c379a0000000000000000000000000000000000000000000000000000000008152600401610d0090612a7e565b60405180910390fd5b8060076000848152602001908152602001600020819055505050565b6060610d3082611056565b610d6f576040517f08c379a0000000000000000000000000000000000000000000000000000000008152600401610d6690612c1e565b60405180910390fd5b6000600660008481526020019081526020016000208054610d8f90612f7e565b80601f0160208091040260200160405190810160405280929190818152602001828054610dbb90612f7e565b8015610e085780601f10610ddd57610100808354040283529160200191610e08565b820191906000526020600020905b815481529060010190602001808311610deb57829003601f168201915b505050505090506000610e19611686565b9050600081511415610e2f578192505050610e72565b600082511115610e64578082604051602001610e4c92919061297f565b60405160208183030381529060405292505050610e72565b610e6d8461169d565b925050505b919050565b610e80816109dc565b73ffffffffffffffffffffffffffffffffffffffff163373ffffffffffffffffffffffffffffffffffffffff1614610eed576040517f08c379a0000000000000000000000000000000000000000000000000000000008152600401610ee490612cde565b60405180910390fd5b6000600760008381526020019081526020016000208190555050565b6000600560008473ffffffffffffffffffffffffffffffffffffffff1673ffffffffffffffffffffffffffffffffffffffff16815260200190815260200160002060008373ffffffffffffffffffffffffffffffffffffffff1673ffffffffffffffffffffffffffffffffffffffff16815260200190815260200160002060009054906101000a900460ff16905092915050565b60076020528060005260406000206000915090505481565b6000610fc16008611744565b6000610fcd600861175a565b9050610fd93382611768565b610fe38184611936565b80915050919050565b60007f01ffc9a7000000000000000000000000000000000000000000000000000000007bffffffffffffffffffffffffffffffffffffffffffffffffffffffff1916827bffffffffffffffffffffffffffffffffffffffffffffffffffffffff1916149050919050565b60008073ffffffffffffffffffffffffffffffffffffffff166002600084815260200190815260200160002060009054906101000a900473ffffffffffffffffffffffffffffffffffffffff1673ffffffffffffffffffffffffffffffffffffffff1614159050919050565b600033905090565b816004600083815260200190815260200160002060006101000a81548173ffffffffffffffffffffffffffffffffffffffff021916908373ffffffffffffffffffffffffffffffffffffffff160217905550808273ffffffffffffffffffffffffffffffffffffffff1661113d836109dc565b73ffffffffffffffffffffffffffffffffffffffff167f8c5be1e5ebec7d5bd14f71427d1e84f3dd0314c0f7b2291e5b200ac8c7c3b92560405160405180910390a45050565b600061118e82611056565b6111cd576040517f08c379a00000000000000000000000000000000000000000000000000000000081526004016111c490612b3e565b60405180910390fd5b60006111d8836109dc565b90508073ffffffffffffffffffffffffffffffffffffffff168473ffffffffffffffffffffffffffffffffffffffff16148061124757508373ffffffffffffffffffffffffffffffffffffffff1661122f846105fb565b73ffffffffffffffffffffffffffffffffffffffff16145b8061125857506112578185610f09565b5b91505092915050565b8273ffffffffffffffffffffffffffffffffffffffff16611281826109dc565b73ffffffffffffffffffffffffffffffffffffffff16146112d7576040517f08c379a00000000000000000000000000000000000000000000000000000000081526004016112ce90612c7e565b60405180910390fd5b600073ffffffffffffffffffffffffffffffffffffffff168273ffffffffffffffffffffffffffffffffffffffff161415611347576040517f08c379a000000000000000000000000000000000000000000000000000000000815260040161133e90612afe565b60405180910390fd5b6113528383836119aa565b61135d6000826110ca565b6001600360008573ffffffffffffffffffffffffffffffffffffffff1673ffffffffffffffffffffffffffffffffffffffff16815260200190815260200160002060008282546113ad9190612e94565b925050819055506001600360008473ffffffffffffffffffffffffffffffffffffffff1673ffffffffffffffffffffffffffffffffffffffff16815260200190815260200160002060008282546114049190612e0d565b92505081905550816002600083815260200190815260200160002060006101000a81548173ffffffffffffffffffffffffffffffffffffffff021916908373ffffffffffffffffffffffffffffffffffffffff160217905550808273ffffffffffffffffffffffffffffffffffffffff168473ffffffffffffffffffffffffffffffffffffffff167fddf252ad1be2c89b69c2b068fc378daa952ba7f163c4a11628f55a4df523b3ef60405160405180910390a4505050565b8173ffffffffffffffffffffffffffffffffffffffff168373ffffffffffffffffffffffffffffffffffffffff16141561152c576040517f08c379a000000000000000000000000000000000000000000000000000000000815260040161152390612b1e565b60405180910390fd5b80600560008573ffffffffffffffffffffffffffffffffffffffff1673ffffffffffffffffffffffffffffffffffffffff16815260200190815260200160002060008473ffffffffffffffffffffffffffffffffffffffff1673ffffffffffffffffffffffffffffffffffffffff16815260200190815260200160002060006101000a81548160ff0219169083151502179055508173ffffffffffffffffffffffffffffffffffffffff168373ffffffffffffffffffffffffffffffffffffffff167f17307eab39ab6107e8899845ad3d59bd9653f200f220920489ca2b5937696c318360405161161d9190612a41565b60405180910390a3505050565b611635848484611261565b611641848484846119af565b611680576040517f08c379a000000000000000000000000000000000000000000000000000000000815260040161167790612a9e565b60405180910390fd5b50505050565b606060405180602001604052806000815250905090565b60606116a882611056565b6116e7576040517f08c379a00000000000000000000000000000000000000000000000000000000081526004016116de90612c9e565b60405180910390fd5b60006116f1611686565b90506000815111611711576040518060200160405280600081525061173c565b8061171b84611b46565b60405160200161172c92919061297f565b6040516020818303038152906040525b915050919050565b6001816000016000828254019250508190555050565b600081600001549050919050565b600073ffffffffffffffffffffffffffffffffffffffff168273ffffffffffffffffffffffffffffffffffffffff1614156117d8576040517f08c379a00000000000000000000000000000000000000000000000000000000081526004016117cf90612bde565b60405180910390fd5b6117e181611056565b15611821576040517f08c379a000000000000000000000000000000000000000000000000000000000815260040161181890612ade565b60405180910390fd5b61182d600083836119aa565b6001600360008473ffffffffffffffffffffffffffffffffffffffff1673ffffffffffffffffffffffffffffffffffffffff168152602001908152602001600020600082825461187d9190612e0d565b92505081905550816002600083815260200190815260200160002060006101000a81548173ffffffffffffffffffffffffffffffffffffffff021916908373ffffffffffffffffffffffffffffffffffffffff160217905550808273ffffffffffffffffffffffffffffffffffffffff16600073ffffffffffffffffffffffffffffffffffffffff167fddf252ad1be2c89b69c2b068fc378daa952ba7f163c4a11628f55a4df523b3ef60405160405180910390a45050565b61193f82611056565b61197e576040517f08c379a000000000000000000000000000000000000000000000000000000000815260040161197590612bbe565b60405180910390fd5b806006600084815260200190815260200160002090805190602001906119a5929190611d06565b505050565b505050565b60006119d08473ffffffffffffffffffffffffffffffffffffffff16611cf3565b15611b39578373ffffffffffffffffffffffffffffffffffffffff1663150b7a026119f96110c2565b8786866040518563ffffffff1660e01b8152600401611a1b94939291906129f5565b602060405180830381600087803b158015611a3557600080fd5b505af1925050508015611a6657506040513d601f19601f82011682018060405250810190611a6391906120b2565b60015b611ae9573d8060008114611a96576040519150601f19603f3d011682016040523d82523d6000602084013e611a9b565b606091505b50600081511415611ae1576040517f08c379a0000000000000000000000000000000000000000000000000000000008152600401611ad890612a9e565b60405180910390fd5b805181602001fd5b63150b7a0260e01b7bffffffffffffffffffffffffffffffffffffffffffffffffffffffff1916817bffffffffffffffffffffffffffffffffffffffffffffffffffffffff191614915050611b3e565b600190505b949350505050565b60606000821415611b8e576040518060400160405280600181526020017f30000000000000000000000000000000000000000000000000000000000000008152509050611cee565b600082905060005b60008214611bc0578080611ba990612fb0565b915050600a82611bb99190612e63565b9150611b96565b60008167ffffffffffffffff811115611c02577f4e487b7100000000000000000000000000000000000000000000000000000000600052604160045260246000fd5b6040519080825280601f01601f191660200182016040528015611c345781602001600182028036833780820191505090505b5090505b60008514611ce757600182611c4d9190612e94565b9150600a85611c5c9190612ff9565b6030611c689190612e0d565b60f81b818381518110611ca4577f4e487b7100000000000000000000000000000000000000000000000000000000600052603260045260246000fd5b60200101907effffffffffffffffffffffffffffffffffffffffffffffffffffffffffffff1916908160001a905350600a85611ce09190612e63565b9450611c38565b8093505050505b919050565b600080823b905060008111915050919050565b828054611d1290612f7e565b90600052602060002090601f016020900481019282611d345760008555611d7b565b82601f10611d4d57805160ff1916838001178555611d7b565b82800160010185558215611d7b579182015b82811115611d7a578251825591602001919060010190611d5f565b5b509050611d889190611d8c565b5090565b5b80821115611da5576000816000905550600101611d8d565b5090565b6000611dbc611db784612d6a565b612d39565b905082815260208101848484011115611dd457600080fd5b611ddf848285612f3c565b509392505050565b6000611dfa611df584612d9a565b612d39565b905082815260208101848484011115611e1257600080fd5b611e1d848285612f3c565b509392505050565b600081359050611e34816130f7565b92915050565b600081359050611e498161310e565b92915050565b600081359050611e5e81613125565b92915050565b600081519050611e7381613125565b92915050565b600082601f830112611e8a57600080fd5b8135611e9a848260208601611da9565b91505092915050565b600082601f830112611eb457600080fd5b8135611ec4848260208601611de7565b91505092915050565b600081359050611edc8161313c565b92915050565b600060208284031215611ef457600080fd5b6000611f0284828501611e25565b91505092915050565b60008060408385031215611f1e57600080fd5b6000611f2c85828601611e25565b9250506020611f3d85828601611e25565b9150509250929050565b600080600060608486031215611f5c57600080fd5b6000611f6a86828701611e25565b9350506020611f7b86828701611e25565b9250506040611f8c86828701611ecd565b9150509250925092565b60008060008060808587031215611fac57600080fd5b6000611fba87828801611e25565b9450506020611fcb87828801611e25565b9350506040611fdc87828801611ecd565b925050606085013567ffffffffffffffff811115611ff957600080fd5b61200587828801611e79565b91505092959194509250565b6000806040838503121561202457600080fd5b600061203285828601611e25565b925050602061204385828601611e3a565b9150509250929050565b6000806040838503121561206057600080fd5b600061206e85828601611e25565b925050602061207f85828601611ecd565b9150509250929050565b60006020828403121561209b57600080fd5b60006120a984828501611e4f565b91505092915050565b6000602082840312156120c457600080fd5b60006120d284828501611e64565b91505092915050565b6000602082840312156120ed57600080fd5b600082013567ffffffffffffffff81111561210757600080fd5b61211384828501611ea3565b91505092915050565b60006020828403121561212e57600080fd5b600061213c84828501611ecd565b91505092915050565b6000806040838503121561215857600080fd5b600061216685828601611ecd565b925050602061217785828601611ecd565b9150509250929050565b61218a81612ec8565b82525050565b61219981612eda565b82525050565b60006121aa82612dca565b6121b48185612de0565b93506121c4818560208601612f4b565b6121cd816130e6565b840191505092915050565b60006121e382612dd5565b6121ed8185612df1565b93506121fd818560208601612f4b565b612206816130e6565b840191505092915050565b600061221c82612dd5565b6122268185612e02565b9350612236818560208601612f4b565b80840191505092915050565b600061224f601183612df1565b91507f50726963652063616e6e6f7420626520300000000000000000000000000000006000830152602082019050919050565b600061228f603283612df1565b91507f4552433732313a207472616e7366657220746f206e6f6e20455243373231526560008301527f63656976657220696d706c656d656e74657200000000000000000000000000006020830152604082019050919050565b60006122f5601a83612df1565b91507f5468697320746f6b656e206973206e6f7420666f722073616c650000000000006000830152602082019050919050565b6000612335601c83612df1565b91507f4552433732313a20746f6b656e20616c7265616479206d696e746564000000006000830152602082019050919050565b6000612375602483612df1565b91507f4552433732313a207472616e7366657220746f20746865207a65726f2061646460008301527f72657373000000000000000000000000000000000000000000000000000000006020830152604082019050919050565b60006123db601983612df1565b91507f4552433732313a20617070726f766520746f2063616c6c6572000000000000006000830152602082019050919050565b600061241b602c83612df1565b91507f4552433732313a206f70657261746f7220717565727920666f72206e6f6e657860008301527f697374656e7420746f6b656e00000000000000000000000000000000000000006020830152604082019050919050565b6000612481603883612df1565b91507f4552433732313a20617070726f76652063616c6c6572206973206e6f74206f7760008301527f6e6572206e6f7220617070726f76656420666f7220616c6c00000000000000006020830152604082019050919050565b60006124e7602a83612df1565b91507f4552433732313a2062616c616e636520717565727920666f7220746865207a6560008301527f726f2061646472657373000000000000000000000000000000000000000000006020830152604082019050919050565b600061254d602983612df1565b91507f4552433732313a206f776e657220717565727920666f72206e6f6e657869737460008301527f656e7420746f6b656e00000000000000000000000000000000000000000000006020830152604082019050919050565b60006125b3602e83612df1565b91507f45524337323155524953746f726167653a2055524920736574206f66206e6f6e60008301527f6578697374656e7420746f6b656e0000000000000000000000000000000000006020830152604082019050919050565b6000612619602083612df1565b91507f4552433732313a206d696e7420746f20746865207a65726f20616464726573736000830152602082019050919050565b6000612659601a83612df1565b91507f596f7520616c7265616479206f776e207468697320746f6b656e0000000000006000830152602082019050919050565b6000612699603183612df1565b91507f45524337323155524953746f726167653a2055524920717565727920666f722060008301527f6e6f6e6578697374656e7420746f6b656e0000000000000000000000000000006020830152604082019050919050565b60006126ff602c83612df1565b91507f4552433732313a20617070726f76656420717565727920666f72206e6f6e657860008301527f697374656e7420746f6b656e00000000000000000000000000000000000000006020830152604082019050919050565b6000612765600f83612df1565b91507f496e636f72726563742076616c756500000000000000000000000000000000006000830152602082019050919050565b60006127a5602983612df1565b91507f4552433732313a207472616e73666572206f6620746f6b656e2074686174206960008301527f73206e6f74206f776e00000000000000000000000000000000000000000000006020830152604082019050919050565b600061280b602f83612df1565b91507f4552433732314d657461646174613a2055524920717565727920666f72206e6f60008301527f6e6578697374656e7420746f6b656e00000000000000000000000000000000006020830152604082019050919050565b6000612871602183612df1565b91507f4552433732313a20617070726f76616c20746f2063757272656e74206f776e6560008301527f72000000000000000000000000000000000000000000000000000000000000006020830152604082019050919050565b60006128d7601783612df1565b91507f4e6f74206f776e6572206f66207468697320746f6b656e0000000000000000006000830152602082019050919050565b6000612917603183612df1565b91507f4552433732313a207472616e736665722063616c6c6572206973206e6f74206f60008301527f776e6572206e6f7220617070726f7665640000000000000000000000000000006020830152604082019050919050565b61297981612f32565b82525050565b600061298b8285612211565b91506129978284612211565b91508190509392505050565b60006020820190506129b86000830184612181565b92915050565b60006060820190506129d36000830186612181565b6129e06020830185612181565b6129ed6040830184612970565b949350505050565b6000608082019050612a0a6000830187612181565b612a176020830186612181565b612a246040830185612970565b8181036060830152612a36818461219f565b905095945050505050565b6000602082019050612a566000830184612190565b92915050565b60006020820190508181036000830152612a7681846121d8565b905092915050565b60006020820190508181036000830152612a9781612242565b9050919050565b60006020820190508181036000830152612ab781612282565b9050919050565b60006020820190508181036000830152612ad7816122e8565b9050919050565b60006020820190508181036000830152612af781612328565b9050919050565b60006020820190508181036000830152612b1781612368565b9050919050565b60006020820190508181036000830152612b37816123ce565b9050919050565b60006020820190508181036000830152612b578161240e565b9050919050565b60006020820190508181036000830152612b7781612474565b9050919050565b60006020820190508181036000830152612b97816124da565b9050919050565b60006020820190508181036000830152612bb781612540565b9050919050565b60006020820190508181036000830152612bd7816125a6565b9050919050565b60006020820190508181036000830152612bf78161260c565b9050919050565b60006020820190508181036000830152612c178161264c565b9050919050565b60006020820190508181036000830152612c378161268c565b9050919050565b60006020820190508181036000830152612c57816126f2565b9050919050565b60006020820190508181036000830152612c7781612758565b9050919050565b60006020820190508181036000830152612c9781612798565b9050919050565b60006020820190508181036000830152612cb7816127fe565b9050919050565b60006020820190508181036000830152612cd781612864565b9050919050565b60006020820190508181036000830152612cf7816128ca565b9050919050565b60006020820190508181036000830152612d178161290a565b9050919050565b6000602082019050612d336000830184612970565b92915050565b6000604051905081810181811067ffffffffffffffff82111715612d6057612d5f6130b7565b5b8060405250919050565b600067ffffffffffffffff821115612d8557612d846130b7565b5b601f19601f8301169050602081019050919050565b600067ffffffffffffffff821115612db557612db46130b7565b5b601f19601f8301169050602081019050919050565b600081519050919050565b600081519050919050565b600082825260208201905092915050565b600082825260208201905092915050565b600081905092915050565b6000612e1882612f32565b9150612e2383612f32565b9250827fffffffffffffffffffffffffffffffffffffffffffffffffffffffffffffffff03821115612e5857612e5761302a565b5b828201905092915050565b6000612e6e82612f32565b9150612e7983612f32565b925082612e8957612e88613059565b5b828204905092915050565b6000612e9f82612f32565b9150612eaa83612f32565b925082821015612ebd57612ebc61302a565b5b828203905092915050565b6000612ed382612f12565b9050919050565b60008115159050919050565b60007fffffffff0000000000000000000000000000000000000000000000000000000082169050919050565b600073ffffffffffffffffffffffffffffffffffffffff82169050919050565b6000819050919050565b82818337600083830152505050565b60005b83811015612f69578082015181840152602081019050612f4e565b83811115612f78576000848401525b50505050565b60006002820490506001821680612f9657607f821691505b60208210811415612faa57612fa9613088565b5b50919050565b6000612fbb82612f32565b91507fffffffffffffffffffffffffffffffffffffffffffffffffffffffffffffffff821415612fee57612fed61302a565b5b600182019050919050565b600061300482612f32565b915061300f83612f32565b92508261301f5761301e613059565b5b828206905092915050565b7f4e487b7100000000000000000000000000000000000000000000000000000000600052601160045260246000fd5b7f4e487b7100000000000000000000000000000000000000000000000000000000600052601260045260246000fd5b7f4e487b7100000000000000000000000000000000000000000000000000000000600052602260045260246000fd5b7f4e487b7100000000000000000000000000000000000000000000000000000000600052604160045260246000fd5b6000601f19601f8301169050919050565b61310081612ec8565b811461310b57600080fd5b50565b61311781612eda565b811461312257600080fd5b50565b61312e81612ee6565b811461313957600080fd5b50565b61314581612f32565b811461315057600080fd5b5056fea26469706673582212207a41148f4921cc7fdf630d2d6dbc308672d57e2471fce058ddc898db6bb6c6cd64736f6c63430008000033",
  "linkReferences": {},
  "deployedLinkReferences": {}
}