{
  "_format": "hh-sol-artifact-1",
  "contractName": "PixellNFT",
  "sourceName": "contracts/NFT.sol",
  "abi": [
    {
      "inputs": [],
      "stateMutability": "nonpayable",
      "type": "constructor"
    },
    {
      "anonymous": false,
      "inputs": [
        {
          "indexed": true,
          "internalType": "address",
          "name": "owner",
          "type": "address"
        },
        {
          "indexed": true,
          "internalType": "address",
          "name": "approved",
          "type": "address"
        },
        {
          "indexed": true,
          "internalType": "uint256",
          "name": "tokenId",
          "type": "uint256"
        }
      ],
      "name": "Approval",
      "type": "event"
    },
    {
      "anonymous": false,
      "inputs": [
        {
          "indexed": true,
          "internalType": "address",
          "name": "owner",
          "type": "address"
        },
        {
          "indexed": true,
          "internalType": "address",
          "name": "operator",
          "type": "address"
        },
        {
          "indexed": false,
          "internalType": "bool",
          "name": "approved",
          "type": "bool"
        }
      ],
      "name": "ApprovalForAll",
      "type": "event"
    },
    {
      "anonymous": false,
      "inputs": [
        {
          "indexed": false,
          "internalType": "address",
          "name": "_seller",
          "type": "address"
        },
        {
          "indexed": false,
          "internalType": "address",
          "name": "_buyer",
          "type": "address"
        },
        {
          "indexed": false,
          "internalType": "uint256",
          "name": "_price",
          "type": "uint256"
        }
      ],
      "name": "NFTBought",
      "type": "event"
    },
    {
      "anonymous": false,
      "inputs": [
        {
          "indexed": true,
          "internalType": "address",
          "name": "from",
          "type": "address"
        },
        {
          "indexed": true,
          "internalType": "address",
          "name": "to",
          "type": "address"
        },
        {
          "indexed": true,
          "internalType": "uint256",
          "name": "tokenId",
          "type": "uint256"
        }
      ],
      "name": "Transfer",
      "type": "event"
    },
    {
      "inputs": [
        {
          "internalType": "uint256",
          "name": "_tokenId",
          "type": "uint256"
        },
        {
          "internalType": "uint256",
          "name": "_price",
          "type": "uint256"
        }
      ],
      "name": "allowBuy",
      "outputs": [],
      "stateMutability": "nonpayable",
      "type": "function"
    },
    {
      "inputs": [
        {
          "internalType": "address",
          "name": "to",
          "type": "address"
        },
        {
          "internalType": "uint256",
          "name": "tokenId",
          "type": "uint256"
        }
      ],
      "name": "approve",
      "outputs": [],
      "stateMutability": "nonpayable",
      "type": "function"
    },
    {
      "inputs": [
        {
          "internalType": "address",
          "name": "owner",
          "type": "address"
        }
      ],
      "name": "balanceOf",
      "outputs": [
        {
          "internalType": "uint256",
          "name": "",
          "type": "uint256"
        }
      ],
      "stateMutability": "view",
      "type": "function"
    },
    {
      "inputs": [
        {
          "internalType": "uint256",
          "name": "_tokenId",
          "type": "uint256"
        }
      ],
      "name": "buyNFT",
      "outputs": [],
      "stateMutability": "payable",
      "type": "function"
    },
    {
      "inputs": [
        {
          "internalType": "uint256",
          "name": "_tokenId",
          "type": "uint256"
        }
      ],
      "name": "disallowBuy",
      "outputs": [],
      "stateMutability": "nonpayable",
      "type": "function"
    },
    {
      "inputs": [
        {
          "internalType": "uint256",
          "name": "tokenId",
          "type": "uint256"
        }
      ],
      "name": "getApproved",
      "outputs": [
        {
          "internalType": "address",
          "name": "",
          "type": "address"
        }
      ],
      "stateMutability": "view",
      "type": "function"
    },
    {
      "inputs": [
        {
          "internalType": "address",
          "name": "owner",
          "type": "address"
        },
        {
          "internalType": "address",
          "name": "operator",
          "type": "address"
        }
      ],
      "name": "isApprovedForAll",
      "outputs": [
        {
          "internalType": "bool",
          "name": "",
          "type": "bool"
        }
      ],
      "stateMutability": "view",
      "type": "function"
    },
    {
      "inputs": [
        {
          "internalType": "address",
          "name": "recipient",
          "type": "address"
        },
        {
          "internalType": "string",
          "name": "tokenURI",
          "type": "string"
        }
      ],
      "name": "mintNFT",
      "outputs": [
        {
          "internalType": "uint256",
          "name": "",
          "type": "uint256"
        }
      ],
      "stateMutability": "nonpayable",
      "type": "function"
    },
    {
      "inputs": [],
      "name": "name",
      "outputs": [
        {
          "internalType": "string",
          "name": "",
          "type": "string"
        }
      ],
      "stateMutability": "view",
      "type": "function"
    },
    {
      "inputs": [
        {
          "internalType": "uint256",
          "name": "tokenId",
          "type": "uint256"
        }
      ],
      "name": "ownerOf",
      "outputs": [
        {
          "internalType": "address",
          "name": "",
          "type": "address"
        }
      ],
      "stateMutability": "view",
      "type": "function"
    },
    {
      "inputs": [
        {
          "internalType": "address",
          "name": "from",
          "type": "address"
        },
        {
          "internalType": "address",
          "name": "to",
          "type": "address"
        },
        {
          "internalType": "uint256",
          "name": "tokenId",
          "type": "uint256"
        }
      ],
      "name": "safeTransferFrom",
      "outputs": [],
      "stateMutability": "nonpayable",
      "type": "function"
    },
    {
      "inputs": [
        {
          "internalType": "address",
          "name": "from",
          "type": "address"
        },
        {
          "internalType": "address",
          "name": "to",
          "type": "address"
        },
        {
          "internalType": "uint256",
          "name": "tokenId",
          "type": "uint256"
        },
        {
          "internalType": "bytes",
          "name": "_data",
          "type": "bytes"
        }
      ],
      "name": "safeTransferFrom",
      "outputs": [],
      "stateMutability": "nonpayable",
      "type": "function"
    },
    {
      "inputs": [
        {
          "internalType": "address",
          "name": "operator",
          "type": "address"
        },
        {
          "internalType": "bool",
          "name": "approved",
          "type": "bool"
        }
      ],
      "name": "setApprovalForAll",
      "outputs": [],
      "stateMutability": "nonpayable",
      "type": "function"
    },
    {
      "inputs": [
        {
          "internalType": "bytes4",
          "name": "interfaceId",
          "type": "bytes4"
        }
      ],
      "name": "supportsInterface",
      "outputs": [
        {
          "internalType": "bool",
          "name": "",
          "type": "bool"
        }
      ],
      "stateMutability": "view",
      "type": "function"
    },
    {
      "inputs": [],
      "name": "symbol",
      "outputs": [
        {
          "internalType": "string",
          "name": "",
          "type": "string"
        }
      ],
      "stateMutability": "view",
      "type": "function"
    },
    {
      "inputs": [
        {
          "internalType": "uint256",
          "name": "",
          "type": "uint256"
        }
      ],
      "name": "tokenIdToPrice",
      "outputs": [
        {
          "internalType": "uint256",
          "name": "",
          "type": "uint256"
        }
      ],
      "stateMutability": "view",
      "type": "function"
    },
    {
      "inputs": [
        {
          "internalType": "uint256",
          "name": "tokenId",
          "type": "uint256"
        }
      ],
      "name": "tokenURI",
      "outputs": [
        {
          "internalType": "string",
          "name": "",
          "type": "string"
        }
      ],
      "stateMutability": "view",
      "type": "function"
    },
    {
      "inputs": [
        {
          "internalType": "address",
          "name": "from",
          "type": "address"
        },
        {
          "internalType": "address",
          "name": "to",
          "type": "address"
        },
        {
          "internalType": "uint256",
          "name": "tokenId",
          "type": "uint256"
        }
      ],
      "name": "transferFrom",
      "outputs": [],
      "stateMutability": "nonpayable",
      "type": "function"
    }
  ],
  "bytecode": "0x60806040523480156200001157600080fd5b506040518060400160405280600981526020017f506978656c6c4e465400000000000000000000000000000000000000000000008152506040518060400160405280600381526020017f4e46540000000000000000000000000000000000000000000000000000000000815250816000908051906020019062000096929190620000b8565b508060019080519060200190620000af929190620000b8565b505050620001cd565b828054620000c69062000168565b90600052602060002090601f016020900481019282620000ea576000855562000136565b82601f106200010557805160ff191683800117855562000136565b8280016001018555821562000136579182015b828111156200013557825182559160200191906001019062000118565b5b50905062000145919062000149565b5090565b5b80821115620001645760008160009055506001016200014a565b5090565b600060028204905060018216806200018157607f821691505b602082108114156200019857620001976200019e565b5b50919050565b7f4e487b7100000000000000000000000000000000000000000000000000000000600052602260045260246000fd5b61319d80620001dd6000396000f3fe6080604052600436106101095760003560e01c806395d89b4111610095578063c87b56dd11610064578063c87b56dd1461036a578063d4991312146103a7578063e985e9c5146103d0578063eacabe141461040d578063f4812eb91461044a57610109565b806395d89b41146102c4578063a22cb465146102ef578063b88d4fde14610318578063bbb5e8d31461034157610109565b806323b872dd116100dc57806323b872dd146101dc57806342842e0e1461020557806351ed82881461022e5780636352211e1461024a57806370a082311461028757610109565b806301ffc9a71461010e57806306fdde031461014b578063081812fc14610176578063095ea7b3146101b3575b600080fd5b34801561011a57600080fd5b50610135600480360381019061013091906120de565b610487565b6040516101429190612a55565b60405180910390f35b34801561015757600080fd5b50610160610569565b60405161016d9190612a70565b60405180910390f35b34801561018257600080fd5b5061019d60048036038101906101989190612130565b6105fb565b6040516101aa91906129b7565b60405180910390f35b3480156101bf57600080fd5b506101da60048036038101906101d591906120a2565b610680565b005b3480156101e857600080fd5b5061020360048036038101906101fe9190611f48565b610798565b005b34801561021157600080fd5b5061022c60048036038101906102279190611f48565b6107f8565b005b61024860048036038101906102439190612130565b610818565b005b34801561025657600080fd5b50610271600480360381019061026c9190612130565b6109dc565b60405161027e91906129b7565b60405180910390f35b34801561029357600080fd5b506102ae60048036038101906102a99190611ee3565b610a8e565b6040516102bb9190612d32565b60405180910390f35b3480156102d057600080fd5b506102d9610b46565b6040516102e69190612a70565b60405180910390f35b3480156102fb57600080fd5b5061031660048036038101906103119190612012565b610bd8565b005b34801561032457600080fd5b5061033f600480360381019061033a9190611f97565b610bee565b005b34801561034d57600080fd5b5061036860048036038101906103639190612159565b610c50565b005b34801561037657600080fd5b50610391600480360381019061038c9190612130565b610d25565b60405161039e9190612a70565b60405180910390f35b3480156103b357600080fd5b506103ce60048036038101906103c99190612130565b610e77565b005b3480156103dc57600080fd5b506103f760048036038101906103f29190611f0c565b610f09565b6040516104049190612a55565b60405180910390f35b34801561041957600080fd5b50610434600480360381019061042f919061204e565b610f9d565b6040516104419190612d32565b60405180910390f35b34801561045657600080fd5b50610471600480360381019061046c9190612130565b610fd5565b60405161047e9190612d32565b60405180910390f35b60007f80ac58cd000000000000000000000000000000000000000000000000000000007bffffffffffffffffffffffffffffffffffffffffffffffffffffffff1916827bffffffffffffffffffffffffffffffffffffffffffffffffffffffff1916148061055257507f5b5e139f000000000000000000000000000000000000000000000000000000007bffffffffffffffffffffffffffffffffffffffffffffffffffffffff1916827bffffffffffffffffffffffffffffffffffffffffffffffffffffffff1916145b80610562575061056182610fed565b5b9050919050565b60606000805461057890612f92565b80601f01602080910402602001604051908101604052809291908181526020018280546105a490612f92565b80156105f15780601f106105c6576101008083540402835291602001916105f1565b820191906000526020600020905b8154815290600101906020018083116105d457829003601f168201915b5050505050905090565b600061060682611057565b610645576040517f08c379a000000000000000000000000000000000000000000000000000000000815260040161063c90612c52565b60405180910390fd5b6004600083815260200190815260200160002060009054906101000a900473ffffffffffffffffffffffffffffffffffffffff169050919050565b600061068b826109dc565b90508073ffffffffffffffffffffffffffffffffffffffff168373ffffffffffffffffffffffffffffffffffffffff1614156106fc576040517f08c379a00000000000000000000000000000000000000000000000000000000081526004016106f390612cd2565b60405180910390fd5b8073ffffffffffffffffffffffffffffffffffffffff1661071b6110c3565b73ffffffffffffffffffffffffffffffffffffffff16148061074a5750610749816107446110c3565b610f09565b5b610789576040517f08c379a000000000000000000000000000000000000000000000000000000000815260040161078090612b72565b60405180910390fd5b61079383836110cb565b505050565b6107a96107a36110c3565b82611184565b6107e8576040517f08c379a00000000000000000000000000000000000000000000000000000000081526004016107df90612d12565b60405180910390fd5b6107f3838383611262565b505050565b61081383838360405180602001604052806000815250610bee565b505050565b60006007600083815260200190815260200160002054905060008111610873576040517f08c379a000000000000000000000000000000000000000000000000000000000815260040161086a90612ad2565b60405180910390fd5b8034146108b5576040517f08c379a00000000000000000000000000000000000000000000000000000000081526004016108ac90612c72565b60405180910390fd5b60006108c0836109dc565b90508073ffffffffffffffffffffffffffffffffffffffff163373ffffffffffffffffffffffffffffffffffffffff161415610931576040517f08c379a000000000000000000000000000000000000000000000000000000000815260040161092890612c12565b60405180910390fd5b61093c813385611262565b600060076000858152602001908152602001600020819055508073ffffffffffffffffffffffffffffffffffffffff166108fc349081150290604051600060405180830381858888f1935050505015801561099b573d6000803e3d6000fd5b507fcd1344421cbf20fee1675696dc29224085bc8d25b5d4e70fc4fb7a68c76af4948133346040516109cf939291906129d2565b60405180910390a1505050565b6000806002600084815260200190815260200160002060009054906101000a900473ffffffffffffffffffffffffffffffffffffffff169050600073ffffffffffffffffffffffffffffffffffffffff168173ffffffffffffffffffffffffffffffffffffffff161415610a85576040517f08c379a0000000000000000000000000000000000000000000000000000000008152600401610a7c90612bb2565b60405180910390fd5b80915050919050565b60008073ffffffffffffffffffffffffffffffffffffffff168273ffffffffffffffffffffffffffffffffffffffff161415610aff576040517f08c379a0000000000000000000000000000000000000000000000000000000008152600401610af690612b92565b60405180910390fd5b600360008373ffffffffffffffffffffffffffffffffffffffff1673ffffffffffffffffffffffffffffffffffffffff168152602001908152602001600020549050919050565b606060018054610b5590612f92565b80601f0160208091040260200160405190810160405280929190818152602001828054610b8190612f92565b8015610bce5780601f10610ba357610100808354040283529160200191610bce565b820191906000526020600020905b815481529060010190602001808311610bb157829003601f168201915b5050505050905090565b610bea610be36110c3565b83836114be565b5050565b610bff610bf96110c3565b83611184565b610c3e576040517f08c379a0000000000000000000000000000000000000000000000000000000008152600401610c3590612d12565b60405180910390fd5b610c4a8484848461162b565b50505050565b610c59826109dc565b73ffffffffffffffffffffffffffffffffffffffff163373ffffffffffffffffffffffffffffffffffffffff1614610cc6576040517f08c379a0000000000000000000000000000000000000000000000000000000008152600401610cbd90612cf2565b60405180910390fd5b60008111610d09576040517f08c379a0000000000000000000000000000000000000000000000000000000008152600401610d0090612a92565b60405180910390fd5b8060076000848152602001908152602001600020819055505050565b6060610d3082611057565b610d6f576040517f08c379a0000000000000000000000000000000000000000000000000000000008152600401610d6690612c32565b60405180910390fd5b6000600660008481526020019081526020016000208054610d8f90612f92565b80601f0160208091040260200160405190810160405280929190818152602001828054610dbb90612f92565b8015610e085780601f10610ddd57610100808354040283529160200191610e08565b820191906000526020600020905b815481529060010190602001808311610deb57829003601f168201915b505050505090506000610e19611687565b9050600081511415610e2f578192505050610e72565b600082511115610e64578082604051602001610e4c929190612993565b60405160208183030381529060405292505050610e72565b610e6d8461169e565b925050505b919050565b610e80816109dc565b73ffffffffffffffffffffffffffffffffffffffff163373ffffffffffffffffffffffffffffffffffffffff1614610eed576040517f08c379a0000000000000000000000000000000000000000000000000000000008152600401610ee490612cf2565b60405180910390fd5b6000600760008381526020019081526020016000208190555050565b6000600560008473ffffffffffffffffffffffffffffffffffffffff1673ffffffffffffffffffffffffffffffffffffffff16815260200190815260200160002060008373ffffffffffffffffffffffffffffffffffffffff1673ffffffffffffffffffffffffffffffffffffffff16815260200190815260200160002060009054906101000a900460ff16905092915050565b6000610fa96008611745565b6000610fb5600861175b565b9050610fc18482611769565b610fcb8184611937565b8091505092915050565b60076020528060005260406000206000915090505481565b60007f01ffc9a7000000000000000000000000000000000000000000000000000000007bffffffffffffffffffffffffffffffffffffffffffffffffffffffff1916827bffffffffffffffffffffffffffffffffffffffffffffffffffffffff1916149050919050565b60008073ffffffffffffffffffffffffffffffffffffffff166002600084815260200190815260200160002060009054906101000a900473ffffffffffffffffffffffffffffffffffffffff1673ffffffffffffffffffffffffffffffffffffffff1614159050919050565b600033905090565b816004600083815260200190815260200160002060006101000a81548173ffffffffffffffffffffffffffffffffffffffff021916908373ffffffffffffffffffffffffffffffffffffffff160217905550808273ffffffffffffffffffffffffffffffffffffffff1661113e836109dc565b73ffffffffffffffffffffffffffffffffffffffff167f8c5be1e5ebec7d5bd14f71427d1e84f3dd0314c0f7b2291e5b200ac8c7c3b92560405160405180910390a45050565b600061118f82611057565b6111ce576040517f08c379a00000000000000000000000000000000000000000000000000000000081526004016111c590612b52565b60405180910390fd5b60006111d9836109dc565b90508073ffffffffffffffffffffffffffffffffffffffff168473ffffffffffffffffffffffffffffffffffffffff16148061124857508373ffffffffffffffffffffffffffffffffffffffff16611230846105fb565b73ffffffffffffffffffffffffffffffffffffffff16145b8061125957506112588185610f09565b5b91505092915050565b8273ffffffffffffffffffffffffffffffffffffffff16611282826109dc565b73ffffffffffffffffffffffffffffffffffffffff16146112d8576040517f08c379a00000000000000000000000000000000000000000000000000000000081526004016112cf90612c92565b60405180910390fd5b600073ffffffffffffffffffffffffffffffffffffffff168273ffffffffffffffffffffffffffffffffffffffff161415611348576040517f08c379a000000000000000000000000000000000000000000000000000000000815260040161133f90612b12565b60405180910390fd5b6113538383836119ab565b61135e6000826110cb565b6001600360008573ffffffffffffffffffffffffffffffffffffffff1673ffffffffffffffffffffffffffffffffffffffff16815260200190815260200160002060008282546113ae9190612ea8565b925050819055506001600360008473ffffffffffffffffffffffffffffffffffffffff1673ffffffffffffffffffffffffffffffffffffffff16815260200190815260200160002060008282546114059190612e21565b92505081905550816002600083815260200190815260200160002060006101000a81548173ffffffffffffffffffffffffffffffffffffffff021916908373ffffffffffffffffffffffffffffffffffffffff160217905550808273ffffffffffffffffffffffffffffffffffffffff168473ffffffffffffffffffffffffffffffffffffffff167fddf252ad1be2c89b69c2b068fc378daa952ba7f163c4a11628f55a4df523b3ef60405160405180910390a4505050565b8173ffffffffffffffffffffffffffffffffffffffff168373ffffffffffffffffffffffffffffffffffffffff16141561152d576040517f08c379a000000000000000000000000000000000000000000000000000000000815260040161152490612b32565b60405180910390fd5b80600560008573ffffffffffffffffffffffffffffffffffffffff1673ffffffffffffffffffffffffffffffffffffffff16815260200190815260200160002060008473ffffffffffffffffffffffffffffffffffffffff1673ffffffffffffffffffffffffffffffffffffffff16815260200190815260200160002060006101000a81548160ff0219169083151502179055508173ffffffffffffffffffffffffffffffffffffffff168373ffffffffffffffffffffffffffffffffffffffff167f17307eab39ab6107e8899845ad3d59bd9653f200f220920489ca2b5937696c318360405161161e9190612a55565b60405180910390a3505050565b611636848484611262565b611642848484846119b0565b611681576040517f08c379a000000000000000000000000000000000000000000000000000000000815260040161167890612ab2565b60405180910390fd5b50505050565b606060405180602001604052806000815250905090565b60606116a982611057565b6116e8576040517f08c379a00000000000000000000000000000000000000000000000000000000081526004016116df90612cb2565b60405180910390fd5b60006116f2611687565b90506000815111611712576040518060200160405280600081525061173d565b8061171c84611b47565b60405160200161172d929190612993565b6040516020818303038152906040525b915050919050565b6001816000016000828254019250508190555050565b600081600001549050919050565b600073ffffffffffffffffffffffffffffffffffffffff168273ffffffffffffffffffffffffffffffffffffffff1614156117d9576040517f08c379a00000000000000000000000000000000000000000000000000000000081526004016117d090612bf2565b60405180910390fd5b6117e281611057565b15611822576040517f08c379a000000000000000000000000000000000000000000000000000000000815260040161181990612af2565b60405180910390fd5b61182e600083836119ab565b6001600360008473ffffffffffffffffffffffffffffffffffffffff1673ffffffffffffffffffffffffffffffffffffffff168152602001908152602001600020600082825461187e9190612e21565b92505081905550816002600083815260200190815260200160002060006101000a81548173ffffffffffffffffffffffffffffffffffffffff021916908373ffffffffffffffffffffffffffffffffffffffff160217905550808273ffffffffffffffffffffffffffffffffffffffff16600073ffffffffffffffffffffffffffffffffffffffff167fddf252ad1be2c89b69c2b068fc378daa952ba7f163c4a11628f55a4df523b3ef60405160405180910390a45050565b61194082611057565b61197f576040517f08c379a000000000000000000000000000000000000000000000000000000000815260040161197690612bd2565b60405180910390fd5b806006600084815260200190815260200160002090805190602001906119a6929190611d07565b505050565b505050565b60006119d18473ffffffffffffffffffffffffffffffffffffffff16611cf4565b15611b3a578373ffffffffffffffffffffffffffffffffffffffff1663150b7a026119fa6110c3565b8786866040518563ffffffff1660e01b8152600401611a1c9493929190612a09565b602060405180830381600087803b158015611a3657600080fd5b505af1925050508015611a6757506040513d601f19601f82011682018060405250810190611a649190612107565b60015b611aea573d8060008114611a97576040519150601f19603f3d011682016040523d82523d6000602084013e611a9c565b606091505b50600081511415611ae2576040517f08c379a0000000000000000000000000000000000000000000000000000000008152600401611ad990612ab2565b60405180910390fd5b805181602001fd5b63150b7a0260e01b7bffffffffffffffffffffffffffffffffffffffffffffffffffffffff1916817bffffffffffffffffffffffffffffffffffffffffffffffffffffffff191614915050611b3f565b600190505b949350505050565b60606000821415611b8f576040518060400160405280600181526020017f30000000000000000000000000000000000000000000000000000000000000008152509050611cef565b600082905060005b60008214611bc1578080611baa90612fc4565b915050600a82611bba9190612e77565b9150611b97565b60008167ffffffffffffffff811115611c03577f4e487b7100000000000000000000000000000000000000000000000000000000600052604160045260246000fd5b6040519080825280601f01601f191660200182016040528015611c355781602001600182028036833780820191505090505b5090505b60008514611ce857600182611c4e9190612ea8565b9150600a85611c5d919061300d565b6030611c699190612e21565b60f81b818381518110611ca5577f4e487b7100000000000000000000000000000000000000000000000000000000600052603260045260246000fd5b60200101907effffffffffffffffffffffffffffffffffffffffffffffffffffffffffffff1916908160001a905350600a85611ce19190612e77565b9450611c39565b8093505050505b919050565b600080823b905060008111915050919050565b828054611d1390612f92565b90600052602060002090601f016020900481019282611d355760008555611d7c565b82601f10611d4e57805160ff1916838001178555611d7c565b82800160010185558215611d7c579182015b82811115611d7b578251825591602001919060010190611d60565b5b509050611d899190611d8d565b5090565b5b80821115611da6576000816000905550600101611d8e565b5090565b6000611dbd611db884612d7e565b612d4d565b905082815260208101848484011115611dd557600080fd5b611de0848285612f50565b509392505050565b6000611dfb611df684612dae565b612d4d565b905082815260208101848484011115611e1357600080fd5b611e1e848285612f50565b509392505050565b600081359050611e358161310b565b92915050565b600081359050611e4a81613122565b92915050565b600081359050611e5f81613139565b92915050565b600081519050611e7481613139565b92915050565b600082601f830112611e8b57600080fd5b8135611e9b848260208601611daa565b91505092915050565b600082601f830112611eb557600080fd5b8135611ec5848260208601611de8565b91505092915050565b600081359050611edd81613150565b92915050565b600060208284031215611ef557600080fd5b6000611f0384828501611e26565b91505092915050565b60008060408385031215611f1f57600080fd5b6000611f2d85828601611e26565b9250506020611f3e85828601611e26565b9150509250929050565b600080600060608486031215611f5d57600080fd5b6000611f6b86828701611e26565b9350506020611f7c86828701611e26565b9250506040611f8d86828701611ece565b9150509250925092565b60008060008060808587031215611fad57600080fd5b6000611fbb87828801611e26565b9450506020611fcc87828801611e26565b9350506040611fdd87828801611ece565b925050606085013567ffffffffffffffff811115611ffa57600080fd5b61200687828801611e7a565b91505092959194509250565b6000806040838503121561202557600080fd5b600061203385828601611e26565b925050602061204485828601611e3b565b9150509250929050565b6000806040838503121561206157600080fd5b600061206f85828601611e26565b925050602083013567ffffffffffffffff81111561208c57600080fd5b61209885828601611ea4565b9150509250929050565b600080604083850312156120b557600080fd5b60006120c385828601611e26565b92505060206120d485828601611ece565b9150509250929050565b6000602082840312156120f057600080fd5b60006120fe84828501611e50565b91505092915050565b60006020828403121561211957600080fd5b600061212784828501611e65565b91505092915050565b60006020828403121561214257600080fd5b600061215084828501611ece565b91505092915050565b6000806040838503121561216c57600080fd5b600061217a85828601611ece565b925050602061218b85828601611ece565b9150509250929050565b61219e81612edc565b82525050565b6121ad81612eee565b82525050565b60006121be82612dde565b6121c88185612df4565b93506121d8818560208601612f5f565b6121e1816130fa565b840191505092915050565b60006121f782612de9565b6122018185612e05565b9350612211818560208601612f5f565b61221a816130fa565b840191505092915050565b600061223082612de9565b61223a8185612e16565b935061224a818560208601612f5f565b80840191505092915050565b6000612263601183612e05565b91507f50726963652063616e6e6f7420626520300000000000000000000000000000006000830152602082019050919050565b60006122a3603283612e05565b91507f4552433732313a207472616e7366657220746f206e6f6e20455243373231526560008301527f63656976657220696d706c656d656e74657200000000000000000000000000006020830152604082019050919050565b6000612309601a83612e05565b91507f5468697320746f6b656e206973206e6f7420666f722073616c650000000000006000830152602082019050919050565b6000612349601c83612e05565b91507f4552433732313a20746f6b656e20616c7265616479206d696e746564000000006000830152602082019050919050565b6000612389602483612e05565b91507f4552433732313a207472616e7366657220746f20746865207a65726f2061646460008301527f72657373000000000000000000000000000000000000000000000000000000006020830152604082019050919050565b60006123ef601983612e05565b91507f4552433732313a20617070726f766520746f2063616c6c6572000000000000006000830152602082019050919050565b600061242f602c83612e05565b91507f4552433732313a206f70657261746f7220717565727920666f72206e6f6e657860008301527f697374656e7420746f6b656e00000000000000000000000000000000000000006020830152604082019050919050565b6000612495603883612e05565b91507f4552433732313a20617070726f76652063616c6c6572206973206e6f74206f7760008301527f6e6572206e6f7220617070726f76656420666f7220616c6c00000000000000006020830152604082019050919050565b60006124fb602a83612e05565b91507f4552433732313a2062616c616e636520717565727920666f7220746865207a6560008301527f726f2061646472657373000000000000000000000000000000000000000000006020830152604082019050919050565b6000612561602983612e05565b91507f4552433732313a206f776e657220717565727920666f72206e6f6e657869737460008301527f656e7420746f6b656e00000000000000000000000000000000000000000000006020830152604082019050919050565b60006125c7602e83612e05565b91507f45524337323155524953746f726167653a2055524920736574206f66206e6f6e60008301527f6578697374656e7420746f6b656e0000000000000000000000000000000000006020830152604082019050919050565b600061262d602083612e05565b91507f4552433732313a206d696e7420746f20746865207a65726f20616464726573736000830152602082019050919050565b600061266d601a83612e05565b91507f596f7520616c7265616479206f776e207468697320746f6b656e0000000000006000830152602082019050919050565b60006126ad603183612e05565b91507f45524337323155524953746f726167653a2055524920717565727920666f722060008301527f6e6f6e6578697374656e7420746f6b656e0000000000000000000000000000006020830152604082019050919050565b6000612713602c83612e05565b91507f4552433732313a20617070726f76656420717565727920666f72206e6f6e657860008301527f697374656e7420746f6b656e00000000000000000000000000000000000000006020830152604082019050919050565b6000612779600f83612e05565b91507f496e636f72726563742076616c756500000000000000000000000000000000006000830152602082019050919050565b60006127b9602983612e05565b91507f4552433732313a207472616e73666572206f6620746f6b656e2074686174206960008301527f73206e6f74206f776e00000000000000000000000000000000000000000000006020830152604082019050919050565b600061281f602f83612e05565b91507f4552433732314d657461646174613a2055524920717565727920666f72206e6f60008301527f6e6578697374656e7420746f6b656e00000000000000000000000000000000006020830152604082019050919050565b6000612885602183612e05565b91507f4552433732313a20617070726f76616c20746f2063757272656e74206f776e6560008301527f72000000000000000000000000000000000000000000000000000000000000006020830152604082019050919050565b60006128eb601783612e05565b91507f4e6f74206f776e6572206f66207468697320746f6b656e0000000000000000006000830152602082019050919050565b600061292b603183612e05565b91507f4552433732313a207472616e736665722063616c6c6572206973206e6f74206f60008301527f776e6572206e6f7220617070726f7665640000000000000000000000000000006020830152604082019050919050565b61298d81612f46565b82525050565b600061299f8285612225565b91506129ab8284612225565b91508190509392505050565b60006020820190506129cc6000830184612195565b92915050565b60006060820190506129e76000830186612195565b6129f46020830185612195565b612a016040830184612984565b949350505050565b6000608082019050612a1e6000830187612195565b612a2b6020830186612195565b612a386040830185612984565b8181036060830152612a4a81846121b3565b905095945050505050565b6000602082019050612a6a60008301846121a4565b92915050565b60006020820190508181036000830152612a8a81846121ec565b905092915050565b60006020820190508181036000830152612aab81612256565b9050919050565b60006020820190508181036000830152612acb81612296565b9050919050565b60006020820190508181036000830152612aeb816122fc565b9050919050565b60006020820190508181036000830152612b0b8161233c565b9050919050565b60006020820190508181036000830152612b2b8161237c565b9050919050565b60006020820190508181036000830152612b4b816123e2565b9050919050565b60006020820190508181036000830152612b6b81612422565b9050919050565b60006020820190508181036000830152612b8b81612488565b9050919050565b60006020820190508181036000830152612bab816124ee565b9050919050565b60006020820190508181036000830152612bcb81612554565b9050919050565b60006020820190508181036000830152612beb816125ba565b9050919050565b60006020820190508181036000830152612c0b81612620565b9050919050565b60006020820190508181036000830152612c2b81612660565b9050919050565b60006020820190508181036000830152612c4b816126a0565b9050919050565b60006020820190508181036000830152612c6b81612706565b9050919050565b60006020820190508181036000830152612c8b8161276c565b9050919050565b60006020820190508181036000830152612cab816127ac565b9050919050565b60006020820190508181036000830152612ccb81612812565b9050919050565b60006020820190508181036000830152612ceb81612878565b9050919050565b60006020820190508181036000830152612d0b816128de565b9050919050565b60006020820190508181036000830152612d2b8161291e565b9050919050565b6000602082019050612d476000830184612984565b92915050565b6000604051905081810181811067ffffffffffffffff82111715612d7457612d736130cb565b5b8060405250919050565b600067ffffffffffffffff821115612d9957612d986130cb565b5b601f19601f8301169050602081019050919050565b600067ffffffffffffffff821115612dc957612dc86130cb565b5b601f19601f8301169050602081019050919050565b600081519050919050565b600081519050919050565b600082825260208201905092915050565b600082825260208201905092915050565b600081905092915050565b6000612e2c82612f46565b9150612e3783612f46565b9250827fffffffffffffffffffffffffffffffffffffffffffffffffffffffffffffffff03821115612e6c57612e6b61303e565b5b828201905092915050565b6000612e8282612f46565b9150612e8d83612f46565b925082612e9d57612e9c61306d565b5b828204905092915050565b6000612eb382612f46565b9150612ebe83612f46565b925082821015612ed157612ed061303e565b5b828203905092915050565b6000612ee782612f26565b9050919050565b60008115159050919050565b60007fffffffff0000000000000000000000000000000000000000000000000000000082169050919050565b600073ffffffffffffffffffffffffffffffffffffffff82169050919050565b6000819050919050565b82818337600083830152505050565b60005b83811015612f7d578082015181840152602081019050612f62565b83811115612f8c576000848401525b50505050565b60006002820490506001821680612faa57607f821691505b60208210811415612fbe57612fbd61309c565b5b50919050565b6000612fcf82612f46565b91507fffffffffffffffffffffffffffffffffffffffffffffffffffffffffffffffff8214156130025761300161303e565b5b600182019050919050565b600061301882612f46565b915061302383612f46565b9250826130335761303261306d565b5b828206905092915050565b7f4e487b7100000000000000000000000000000000000000000000000000000000600052601160045260246000fd5b7f4e487b7100000000000000000000000000000000000000000000000000000000600052601260045260246000fd5b7f4e487b7100000000000000000000000000000000000000000000000000000000600052602260045260246000fd5b7f4e487b7100000000000000000000000000000000000000000000000000000000600052604160045260246000fd5b6000601f19601f8301169050919050565b61311481612edc565b811461311f57600080fd5b50565b61312b81612eee565b811461313657600080fd5b50565b61314281612efa565b811461314d57600080fd5b50565b61315981612f46565b811461316457600080fd5b5056fea26469706673582212203dfde63126954e1348974632dcf8de1d0e4670b21706f0c316a92ae44378121064736f6c63430008000033",
  "linkReferences": {},
  "deployedLinkReferences": {}
}