{
  "_format": "hh-sol-artifact-1",
  "contractName": "PixellNFT",
  "sourceName": "contracts/NFT.sol",
  "abi": [
    {
      "inputs": [],
      "stateMutability": "nonpayable",
      "type": "constructor"
    },
    {
      "anonymous": false,
      "inputs": [
        {
          "indexed": true,
          "internalType": "address",
          "name": "owner",
          "type": "address"
        },
        {
          "indexed": true,
          "internalType": "address",
          "name": "approved",
          "type": "address"
        },
        {
          "indexed": true,
          "internalType": "uint256",
          "name": "tokenId",
          "type": "uint256"
        }
      ],
      "name": "Approval",
      "type": "event"
    },
    {
      "anonymous": false,
      "inputs": [
        {
          "indexed": true,
          "internalType": "address",
          "name": "owner",
          "type": "address"
        },
        {
          "indexed": true,
          "internalType": "address",
          "name": "operator",
          "type": "address"
        },
        {
          "indexed": false,
          "internalType": "bool",
          "name": "approved",
          "type": "bool"
        }
      ],
      "name": "ApprovalForAll",
      "type": "event"
    },
    {
      "anonymous": false,
      "inputs": [
        {
          "indexed": false,
          "internalType": "address",
          "name": "_seller",
          "type": "address"
        },
        {
          "indexed": false,
          "internalType": "address",
          "name": "_buyer",
          "type": "address"
        },
        {
          "indexed": false,
          "internalType": "uint256",
          "name": "_price",
          "type": "uint256"
        }
      ],
      "name": "NFTBought",
      "type": "event"
    },
    {
      "anonymous": false,
      "inputs": [
        {
          "indexed": true,
          "internalType": "address",
          "name": "from",
          "type": "address"
        },
        {
          "indexed": true,
          "internalType": "address",
          "name": "to",
          "type": "address"
        },
        {
          "indexed": true,
          "internalType": "uint256",
          "name": "tokenId",
          "type": "uint256"
        }
      ],
      "name": "Transfer",
      "type": "event"
    },
    {
      "inputs": [
        {
          "internalType": "uint256",
          "name": "_tokenId",
          "type": "uint256"
        },
        {
          "internalType": "uint256",
          "name": "_price",
          "type": "uint256"
        }
      ],
      "name": "allowBuy",
      "outputs": [],
      "stateMutability": "nonpayable",
      "type": "function"
    },
    {
      "inputs": [
        {
          "internalType": "address",
          "name": "to",
          "type": "address"
        },
        {
          "internalType": "uint256",
          "name": "tokenId",
          "type": "uint256"
        }
      ],
      "name": "approve",
      "outputs": [],
      "stateMutability": "nonpayable",
      "type": "function"
    },
    {
      "inputs": [
        {
          "internalType": "address",
          "name": "owner",
          "type": "address"
        }
      ],
      "name": "balanceOf",
      "outputs": [
        {
          "internalType": "uint256",
          "name": "",
          "type": "uint256"
        }
      ],
      "stateMutability": "view",
      "type": "function"
    },
    {
      "inputs": [
        {
          "internalType": "uint256",
          "name": "_tokenId",
          "type": "uint256"
        }
      ],
      "name": "buyNFT",
      "outputs": [],
      "stateMutability": "payable",
      "type": "function"
    },
    {
      "inputs": [
        {
          "internalType": "uint256",
          "name": "_tokenId",
          "type": "uint256"
        }
      ],
      "name": "disallowBuy",
      "outputs": [],
      "stateMutability": "nonpayable",
      "type": "function"
    },
    {
      "inputs": [
        {
          "internalType": "uint256",
          "name": "tokenId",
          "type": "uint256"
        }
      ],
      "name": "getApproved",
      "outputs": [
        {
          "internalType": "address",
          "name": "",
          "type": "address"
        }
      ],
      "stateMutability": "view",
      "type": "function"
    },
    {
      "inputs": [
        {
          "internalType": "address",
          "name": "owner",
          "type": "address"
        },
        {
          "internalType": "address",
          "name": "operator",
          "type": "address"
        }
      ],
      "name": "isApprovedForAll",
      "outputs": [
        {
          "internalType": "bool",
          "name": "",
          "type": "bool"
        }
      ],
      "stateMutability": "view",
      "type": "function"
    },
    {
      "inputs": [
        {
          "internalType": "address",
          "name": "recipient",
          "type": "address"
        },
        {
          "internalType": "string",
          "name": "tokenURI",
          "type": "string"
        },
        {
          "internalType": "uint256",
          "name": "tokenId",
          "type": "uint256"
        }
      ],
      "name": "mintNFT",
      "outputs": [
        {
          "internalType": "uint256",
          "name": "",
          "type": "uint256"
        }
      ],
      "stateMutability": "nonpayable",
      "type": "function"
    },
    {
      "inputs": [],
      "name": "name",
      "outputs": [
        {
          "internalType": "string",
          "name": "",
          "type": "string"
        }
      ],
      "stateMutability": "view",
      "type": "function"
    },
    {
      "inputs": [
        {
          "internalType": "uint256",
          "name": "tokenId",
          "type": "uint256"
        }
      ],
      "name": "ownerOf",
      "outputs": [
        {
          "internalType": "address",
          "name": "",
          "type": "address"
        }
      ],
      "stateMutability": "view",
      "type": "function"
    },
    {
      "inputs": [
        {
          "internalType": "address",
          "name": "from",
          "type": "address"
        },
        {
          "internalType": "address",
          "name": "to",
          "type": "address"
        },
        {
          "internalType": "uint256",
          "name": "tokenId",
          "type": "uint256"
        }
      ],
      "name": "safeTransferFrom",
      "outputs": [],
      "stateMutability": "nonpayable",
      "type": "function"
    },
    {
      "inputs": [
        {
          "internalType": "address",
          "name": "from",
          "type": "address"
        },
        {
          "internalType": "address",
          "name": "to",
          "type": "address"
        },
        {
          "internalType": "uint256",
          "name": "tokenId",
          "type": "uint256"
        },
        {
          "internalType": "bytes",
          "name": "_data",
          "type": "bytes"
        }
      ],
      "name": "safeTransferFrom",
      "outputs": [],
      "stateMutability": "nonpayable",
      "type": "function"
    },
    {
      "inputs": [
        {
          "internalType": "address",
          "name": "operator",
          "type": "address"
        },
        {
          "internalType": "bool",
          "name": "approved",
          "type": "bool"
        }
      ],
      "name": "setApprovalForAll",
      "outputs": [],
      "stateMutability": "nonpayable",
      "type": "function"
    },
    {
      "inputs": [
        {
          "internalType": "bytes4",
          "name": "interfaceId",
          "type": "bytes4"
        }
      ],
      "name": "supportsInterface",
      "outputs": [
        {
          "internalType": "bool",
          "name": "",
          "type": "bool"
        }
      ],
      "stateMutability": "view",
      "type": "function"
    },
    {
      "inputs": [],
      "name": "symbol",
      "outputs": [
        {
          "internalType": "string",
          "name": "",
          "type": "string"
        }
      ],
      "stateMutability": "view",
      "type": "function"
    },
    {
      "inputs": [
        {
          "internalType": "uint256",
          "name": "",
          "type": "uint256"
        }
      ],
      "name": "tokenIdToPrice",
      "outputs": [
        {
          "internalType": "uint256",
          "name": "",
          "type": "uint256"
        }
      ],
      "stateMutability": "view",
      "type": "function"
    },
    {
      "inputs": [
        {
          "internalType": "uint256",
          "name": "tokenId",
          "type": "uint256"
        }
      ],
      "name": "tokenURI",
      "outputs": [
        {
          "internalType": "string",
          "name": "",
          "type": "string"
        }
      ],
      "stateMutability": "view",
      "type": "function"
    },
    {
      "inputs": [
        {
          "internalType": "address",
          "name": "from",
          "type": "address"
        },
        {
          "internalType": "address",
          "name": "to",
          "type": "address"
        },
        {
          "internalType": "uint256",
          "name": "tokenId",
          "type": "uint256"
        }
      ],
      "name": "transferFrom",
      "outputs": [],
      "stateMutability": "nonpayable",
      "type": "function"
    }
  ],
  "bytecode": "0x60806040523480156200001157600080fd5b506040518060400160405280600981526020017f506978656c6c4e465400000000000000000000000000000000000000000000008152506040518060400160405280600381526020017f4e46540000000000000000000000000000000000000000000000000000000000815250816000908051906020019062000096929190620000b8565b508060019080519060200190620000af929190620000b8565b505050620001cd565b828054620000c69062000168565b90600052602060002090601f016020900481019282620000ea576000855562000136565b82601f106200010557805160ff191683800117855562000136565b8280016001018555821562000136579182015b828111156200013557825182559160200191906001019062000118565b5b50905062000145919062000149565b5090565b5b80821115620001645760008160009055506001016200014a565b5090565b600060028204905060018216806200018157607f821691505b602082108114156200019857620001976200019e565b5b50919050565b7f4e487b7100000000000000000000000000000000000000000000000000000000600052602260045260246000fd5b61317480620001dd6000396000f3fe6080604052600436106101095760003560e01c806370a0823111610095578063bbb5e8d311610064578063bbb5e8d31461037e578063c87b56dd146103a7578063d4991312146103e4578063e985e9c51461040d578063f4812eb91461044a57610109565b806370a08231146102c457806395d89b4114610301578063a22cb4651461032c578063b88d4fde1461035557610109565b8063095ea7b3116100dc578063095ea7b3146101f057806323b872dd1461021957806342842e0e1461024257806351ed82881461026b5780636352211e1461028757610109565b806301ffc9a71461010e57806306fdde031461014b578063081812fc1461017657806308598df0146101b3575b600080fd5b34801561011a57600080fd5b50610135600480360381019061013091906120b5565b610487565b6040516101429190612a2c565b60405180910390f35b34801561015757600080fd5b50610160610569565b60405161016d9190612a47565b60405180910390f35b34801561018257600080fd5b5061019d60048036038101906101989190612107565b6105fb565b6040516101aa919061298e565b60405180910390f35b3480156101bf57600080fd5b506101da60048036038101906101d59190612012565b610680565b6040516101e79190612d09565b60405180910390f35b3480156101fc57600080fd5b5061021760048036038101906102129190612079565b6106a0565b005b34801561022557600080fd5b50610240600480360381019061023b9190611f0c565b6107b8565b005b34801561024e57600080fd5b5061026960048036038101906102649190611f0c565b610818565b005b61028560048036038101906102809190612107565b610838565b005b34801561029357600080fd5b506102ae60048036038101906102a99190612107565b6109fc565b6040516102bb919061298e565b60405180910390f35b3480156102d057600080fd5b506102eb60048036038101906102e69190611ea7565b610aae565b6040516102f89190612d09565b60405180910390f35b34801561030d57600080fd5b50610316610b66565b6040516103239190612a47565b60405180910390f35b34801561033857600080fd5b50610353600480360381019061034e9190611fd6565b610bf8565b005b34801561036157600080fd5b5061037c60048036038101906103779190611f5b565b610c0e565b005b34801561038a57600080fd5b506103a560048036038101906103a09190612130565b610c70565b005b3480156103b357600080fd5b506103ce60048036038101906103c99190612107565b610d45565b6040516103db9190612a47565b60405180910390f35b3480156103f057600080fd5b5061040b60048036038101906104069190612107565b610e97565b005b34801561041957600080fd5b50610434600480360381019061042f9190611ed0565b610f29565b6040516104419190612a2c565b60405180910390f35b34801561045657600080fd5b50610471600480360381019061046c9190612107565b610fbd565b60405161047e9190612d09565b60405180910390f35b60007f80ac58cd000000000000000000000000000000000000000000000000000000007bffffffffffffffffffffffffffffffffffffffffffffffffffffffff1916827bffffffffffffffffffffffffffffffffffffffffffffffffffffffff1916148061055257507f5b5e139f000000000000000000000000000000000000000000000000000000007bffffffffffffffffffffffffffffffffffffffffffffffffffffffff1916827bffffffffffffffffffffffffffffffffffffffffffffffffffffffff1916145b80610562575061056182610fd5565b5b9050919050565b60606000805461057890612f69565b80601f01602080910402602001604051908101604052809291908181526020018280546105a490612f69565b80156105f15780601f106105c6576101008083540402835291602001916105f1565b820191906000526020600020905b8154815290600101906020018083116105d457829003601f168201915b5050505050905090565b60006106068261103f565b610645576040517f08c379a000000000000000000000000000000000000000000000000000000000815260040161063c90612c29565b60405180910390fd5b6004600083815260200190815260200160002060009054906101000a900473ffffffffffffffffffffffffffffffffffffffff169050919050565b600061068c84836110ab565b6106968284611279565b8190509392505050565b60006106ab826109fc565b90508073ffffffffffffffffffffffffffffffffffffffff168373ffffffffffffffffffffffffffffffffffffffff16141561071c576040517f08c379a000000000000000000000000000000000000000000000000000000000815260040161071390612ca9565b60405180910390fd5b8073ffffffffffffffffffffffffffffffffffffffff1661073b6112ed565b73ffffffffffffffffffffffffffffffffffffffff16148061076a5750610769816107646112ed565b610f29565b5b6107a9576040517f08c379a00000000000000000000000000000000000000000000000000000000081526004016107a090612b49565b60405180910390fd5b6107b383836112f5565b505050565b6107c96107c36112ed565b826113ae565b610808576040517f08c379a00000000000000000000000000000000000000000000000000000000081526004016107ff90612ce9565b60405180910390fd5b61081383838361148c565b505050565b61083383838360405180602001604052806000815250610c0e565b505050565b60006007600083815260200190815260200160002054905060008111610893576040517f08c379a000000000000000000000000000000000000000000000000000000000815260040161088a90612aa9565b60405180910390fd5b8034146108d5576040517f08c379a00000000000000000000000000000000000000000000000000000000081526004016108cc90612c49565b60405180910390fd5b60006108e0836109fc565b90508073ffffffffffffffffffffffffffffffffffffffff163373ffffffffffffffffffffffffffffffffffffffff161415610951576040517f08c379a000000000000000000000000000000000000000000000000000000000815260040161094890612be9565b60405180910390fd5b61095c81338561148c565b600060076000858152602001908152602001600020819055508073ffffffffffffffffffffffffffffffffffffffff166108fc349081150290604051600060405180830381858888f193505050501580156109bb573d6000803e3d6000fd5b507fcd1344421cbf20fee1675696dc29224085bc8d25b5d4e70fc4fb7a68c76af4948133346040516109ef939291906129a9565b60405180910390a1505050565b6000806002600084815260200190815260200160002060009054906101000a900473ffffffffffffffffffffffffffffffffffffffff169050600073ffffffffffffffffffffffffffffffffffffffff168173ffffffffffffffffffffffffffffffffffffffff161415610aa5576040517f08c379a0000000000000000000000000000000000000000000000000000000008152600401610a9c90612b89565b60405180910390fd5b80915050919050565b60008073ffffffffffffffffffffffffffffffffffffffff168273ffffffffffffffffffffffffffffffffffffffff161415610b1f576040517f08c379a0000000000000000000000000000000000000000000000000000000008152600401610b1690612b69565b60405180910390fd5b600360008373ffffffffffffffffffffffffffffffffffffffff1673ffffffffffffffffffffffffffffffffffffffff168152602001908152602001600020549050919050565b606060018054610b7590612f69565b80601f0160208091040260200160405190810160405280929190818152602001828054610ba190612f69565b8015610bee5780601f10610bc357610100808354040283529160200191610bee565b820191906000526020600020905b815481529060010190602001808311610bd157829003601f168201915b5050505050905090565b610c0a610c036112ed565b83836116e8565b5050565b610c1f610c196112ed565b836113ae565b610c5e576040517f08c379a0000000000000000000000000000000000000000000000000000000008152600401610c5590612ce9565b60405180910390fd5b610c6a84848484611855565b50505050565b610c79826109fc565b73ffffffffffffffffffffffffffffffffffffffff163373ffffffffffffffffffffffffffffffffffffffff1614610ce6576040517f08c379a0000000000000000000000000000000000000000000000000000000008152600401610cdd90612cc9565b60405180910390fd5b60008111610d29576040517f08c379a0000000000000000000000000000000000000000000000000000000008152600401610d2090612a69565b60405180910390fd5b8060076000848152602001908152602001600020819055505050565b6060610d508261103f565b610d8f576040517f08c379a0000000000000000000000000000000000000000000000000000000008152600401610d8690612c09565b60405180910390fd5b6000600660008481526020019081526020016000208054610daf90612f69565b80601f0160208091040260200160405190810160405280929190818152602001828054610ddb90612f69565b8015610e285780601f10610dfd57610100808354040283529160200191610e28565b820191906000526020600020905b815481529060010190602001808311610e0b57829003601f168201915b505050505090506000610e396118b1565b9050600081511415610e4f578192505050610e92565b600082511115610e84578082604051602001610e6c92919061296a565b60405160208183030381529060405292505050610e92565b610e8d846118c8565b925050505b919050565b610ea0816109fc565b73ffffffffffffffffffffffffffffffffffffffff163373ffffffffffffffffffffffffffffffffffffffff1614610f0d576040517f08c379a0000000000000000000000000000000000000000000000000000000008152600401610f0490612cc9565b60405180910390fd5b6000600760008381526020019081526020016000208190555050565b6000600560008473ffffffffffffffffffffffffffffffffffffffff1673ffffffffffffffffffffffffffffffffffffffff16815260200190815260200160002060008373ffffffffffffffffffffffffffffffffffffffff1673ffffffffffffffffffffffffffffffffffffffff16815260200190815260200160002060009054906101000a900460ff16905092915050565b60076020528060005260406000206000915090505481565b60007f01ffc9a7000000000000000000000000000000000000000000000000000000007bffffffffffffffffffffffffffffffffffffffffffffffffffffffff1916827bffffffffffffffffffffffffffffffffffffffffffffffffffffffff1916149050919050565b60008073ffffffffffffffffffffffffffffffffffffffff166002600084815260200190815260200160002060009054906101000a900473ffffffffffffffffffffffffffffffffffffffff1673ffffffffffffffffffffffffffffffffffffffff1614159050919050565b600073ffffffffffffffffffffffffffffffffffffffff168273ffffffffffffffffffffffffffffffffffffffff16141561111b576040517f08c379a000000000000000000000000000000000000000000000000000000000815260040161111290612bc9565b60405180910390fd5b6111248161103f565b15611164576040517f08c379a000000000000000000000000000000000000000000000000000000000815260040161115b90612ac9565b60405180910390fd5b6111706000838361196f565b6001600360008473ffffffffffffffffffffffffffffffffffffffff1673ffffffffffffffffffffffffffffffffffffffff16815260200190815260200160002060008282546111c09190612df8565b92505081905550816002600083815260200190815260200160002060006101000a81548173ffffffffffffffffffffffffffffffffffffffff021916908373ffffffffffffffffffffffffffffffffffffffff160217905550808273ffffffffffffffffffffffffffffffffffffffff16600073ffffffffffffffffffffffffffffffffffffffff167fddf252ad1be2c89b69c2b068fc378daa952ba7f163c4a11628f55a4df523b3ef60405160405180910390a45050565b6112828261103f565b6112c1576040517f08c379a00000000000000000000000000000000000000000000000000000000081526004016112b890612ba9565b60405180910390fd5b806006600084815260200190815260200160002090805190602001906112e8929190611ccb565b505050565b600033905090565b816004600083815260200190815260200160002060006101000a81548173ffffffffffffffffffffffffffffffffffffffff021916908373ffffffffffffffffffffffffffffffffffffffff160217905550808273ffffffffffffffffffffffffffffffffffffffff16611368836109fc565b73ffffffffffffffffffffffffffffffffffffffff167f8c5be1e5ebec7d5bd14f71427d1e84f3dd0314c0f7b2291e5b200ac8c7c3b92560405160405180910390a45050565b60006113b98261103f565b6113f8576040517f08c379a00000000000000000000000000000000000000000000000000000000081526004016113ef90612b29565b60405180910390fd5b6000611403836109fc565b90508073ffffffffffffffffffffffffffffffffffffffff168473ffffffffffffffffffffffffffffffffffffffff16148061147257508373ffffffffffffffffffffffffffffffffffffffff1661145a846105fb565b73ffffffffffffffffffffffffffffffffffffffff16145b8061148357506114828185610f29565b5b91505092915050565b8273ffffffffffffffffffffffffffffffffffffffff166114ac826109fc565b73ffffffffffffffffffffffffffffffffffffffff1614611502576040517f08c379a00000000000000000000000000000000000000000000000000000000081526004016114f990612c69565b60405180910390fd5b600073ffffffffffffffffffffffffffffffffffffffff168273ffffffffffffffffffffffffffffffffffffffff161415611572576040517f08c379a000000000000000000000000000000000000000000000000000000000815260040161156990612ae9565b60405180910390fd5b61157d83838361196f565b6115886000826112f5565b6001600360008573ffffffffffffffffffffffffffffffffffffffff1673ffffffffffffffffffffffffffffffffffffffff16815260200190815260200160002060008282546115d89190612e7f565b925050819055506001600360008473ffffffffffffffffffffffffffffffffffffffff1673ffffffffffffffffffffffffffffffffffffffff168152602001908152602001600020600082825461162f9190612df8565b92505081905550816002600083815260200190815260200160002060006101000a81548173ffffffffffffffffffffffffffffffffffffffff021916908373ffffffffffffffffffffffffffffffffffffffff160217905550808273ffffffffffffffffffffffffffffffffffffffff168473ffffffffffffffffffffffffffffffffffffffff167fddf252ad1be2c89b69c2b068fc378daa952ba7f163c4a11628f55a4df523b3ef60405160405180910390a4505050565b8173ffffffffffffffffffffffffffffffffffffffff168373ffffffffffffffffffffffffffffffffffffffff161415611757576040517f08c379a000000000000000000000000000000000000000000000000000000000815260040161174e90612b09565b60405180910390fd5b80600560008573ffffffffffffffffffffffffffffffffffffffff1673ffffffffffffffffffffffffffffffffffffffff16815260200190815260200160002060008473ffffffffffffffffffffffffffffffffffffffff1673ffffffffffffffffffffffffffffffffffffffff16815260200190815260200160002060006101000a81548160ff0219169083151502179055508173ffffffffffffffffffffffffffffffffffffffff168373ffffffffffffffffffffffffffffffffffffffff167f17307eab39ab6107e8899845ad3d59bd9653f200f220920489ca2b5937696c31836040516118489190612a2c565b60405180910390a3505050565b61186084848461148c565b61186c84848484611974565b6118ab576040517f08c379a00000000000000000000000000000000000000000000000000000000081526004016118a290612a89565b60405180910390fd5b50505050565b606060405180602001604052806000815250905090565b60606118d38261103f565b611912576040517f08c379a000000000000000000000000000000000000000000000000000000000815260040161190990612c89565b60405180910390fd5b600061191c6118b1565b9050600081511161193c5760405180602001604052806000815250611967565b8061194684611b0b565b60405160200161195792919061296a565b6040516020818303038152906040525b915050919050565b505050565b60006119958473ffffffffffffffffffffffffffffffffffffffff16611cb8565b15611afe578373ffffffffffffffffffffffffffffffffffffffff1663150b7a026119be6112ed565b8786866040518563ffffffff1660e01b81526004016119e094939291906129e0565b602060405180830381600087803b1580156119fa57600080fd5b505af1925050508015611a2b57506040513d601f19601f82011682018060405250810190611a2891906120de565b60015b611aae573d8060008114611a5b576040519150601f19603f3d011682016040523d82523d6000602084013e611a60565b606091505b50600081511415611aa6576040517f08c379a0000000000000000000000000000000000000000000000000000000008152600401611a9d90612a89565b60405180910390fd5b805181602001fd5b63150b7a0260e01b7bffffffffffffffffffffffffffffffffffffffffffffffffffffffff1916817bffffffffffffffffffffffffffffffffffffffffffffffffffffffff191614915050611b03565b600190505b949350505050565b60606000821415611b53576040518060400160405280600181526020017f30000000000000000000000000000000000000000000000000000000000000008152509050611cb3565b600082905060005b60008214611b85578080611b6e90612f9b565b915050600a82611b7e9190612e4e565b9150611b5b565b60008167ffffffffffffffff811115611bc7577f4e487b7100000000000000000000000000000000000000000000000000000000600052604160045260246000fd5b6040519080825280601f01601f191660200182016040528015611bf95781602001600182028036833780820191505090505b5090505b60008514611cac57600182611c129190612e7f565b9150600a85611c219190612fe4565b6030611c2d9190612df8565b60f81b818381518110611c69577f4e487b7100000000000000000000000000000000000000000000000000000000600052603260045260246000fd5b60200101907effffffffffffffffffffffffffffffffffffffffffffffffffffffffffffff1916908160001a905350600a85611ca59190612e4e565b9450611bfd565b8093505050505b919050565b600080823b905060008111915050919050565b828054611cd790612f69565b90600052602060002090601f016020900481019282611cf95760008555611d40565b82601f10611d1257805160ff1916838001178555611d40565b82800160010185558215611d40579182015b82811115611d3f578251825591602001919060010190611d24565b5b509050611d4d9190611d51565b5090565b5b80821115611d6a576000816000905550600101611d52565b5090565b6000611d81611d7c84612d55565b612d24565b905082815260208101848484011115611d9957600080fd5b611da4848285612f27565b509392505050565b6000611dbf611dba84612d85565b612d24565b905082815260208101848484011115611dd757600080fd5b611de2848285612f27565b509392505050565b600081359050611df9816130e2565b92915050565b600081359050611e0e816130f9565b92915050565b600081359050611e2381613110565b92915050565b600081519050611e3881613110565b92915050565b600082601f830112611e4f57600080fd5b8135611e5f848260208601611d6e565b91505092915050565b600082601f830112611e7957600080fd5b8135611e89848260208601611dac565b91505092915050565b600081359050611ea181613127565b92915050565b600060208284031215611eb957600080fd5b6000611ec784828501611dea565b91505092915050565b60008060408385031215611ee357600080fd5b6000611ef185828601611dea565b9250506020611f0285828601611dea565b9150509250929050565b600080600060608486031215611f2157600080fd5b6000611f2f86828701611dea565b9350506020611f4086828701611dea565b9250506040611f5186828701611e92565b9150509250925092565b60008060008060808587031215611f7157600080fd5b6000611f7f87828801611dea565b9450506020611f9087828801611dea565b9350506040611fa187828801611e92565b925050606085013567ffffffffffffffff811115611fbe57600080fd5b611fca87828801611e3e565b91505092959194509250565b60008060408385031215611fe957600080fd5b6000611ff785828601611dea565b925050602061200885828601611dff565b9150509250929050565b60008060006060848603121561202757600080fd5b600061203586828701611dea565b935050602084013567ffffffffffffffff81111561205257600080fd5b61205e86828701611e68565b925050604061206f86828701611e92565b9150509250925092565b6000806040838503121561208c57600080fd5b600061209a85828601611dea565b92505060206120ab85828601611e92565b9150509250929050565b6000602082840312156120c757600080fd5b60006120d584828501611e14565b91505092915050565b6000602082840312156120f057600080fd5b60006120fe84828501611e29565b91505092915050565b60006020828403121561211957600080fd5b600061212784828501611e92565b91505092915050565b6000806040838503121561214357600080fd5b600061215185828601611e92565b925050602061216285828601611e92565b9150509250929050565b61217581612eb3565b82525050565b61218481612ec5565b82525050565b600061219582612db5565b61219f8185612dcb565b93506121af818560208601612f36565b6121b8816130d1565b840191505092915050565b60006121ce82612dc0565b6121d88185612ddc565b93506121e8818560208601612f36565b6121f1816130d1565b840191505092915050565b600061220782612dc0565b6122118185612ded565b9350612221818560208601612f36565b80840191505092915050565b600061223a601183612ddc565b91507f50726963652063616e6e6f7420626520300000000000000000000000000000006000830152602082019050919050565b600061227a603283612ddc565b91507f4552433732313a207472616e7366657220746f206e6f6e20455243373231526560008301527f63656976657220696d706c656d656e74657200000000000000000000000000006020830152604082019050919050565b60006122e0601a83612ddc565b91507f5468697320746f6b656e206973206e6f7420666f722073616c650000000000006000830152602082019050919050565b6000612320601c83612ddc565b91507f4552433732313a20746f6b656e20616c7265616479206d696e746564000000006000830152602082019050919050565b6000612360602483612ddc565b91507f4552433732313a207472616e7366657220746f20746865207a65726f2061646460008301527f72657373000000000000000000000000000000000000000000000000000000006020830152604082019050919050565b60006123c6601983612ddc565b91507f4552433732313a20617070726f766520746f2063616c6c6572000000000000006000830152602082019050919050565b6000612406602c83612ddc565b91507f4552433732313a206f70657261746f7220717565727920666f72206e6f6e657860008301527f697374656e7420746f6b656e00000000000000000000000000000000000000006020830152604082019050919050565b600061246c603883612ddc565b91507f4552433732313a20617070726f76652063616c6c6572206973206e6f74206f7760008301527f6e6572206e6f7220617070726f76656420666f7220616c6c00000000000000006020830152604082019050919050565b60006124d2602a83612ddc565b91507f4552433732313a2062616c616e636520717565727920666f7220746865207a6560008301527f726f2061646472657373000000000000000000000000000000000000000000006020830152604082019050919050565b6000612538602983612ddc565b91507f4552433732313a206f776e657220717565727920666f72206e6f6e657869737460008301527f656e7420746f6b656e00000000000000000000000000000000000000000000006020830152604082019050919050565b600061259e602e83612ddc565b91507f45524337323155524953746f726167653a2055524920736574206f66206e6f6e60008301527f6578697374656e7420746f6b656e0000000000000000000000000000000000006020830152604082019050919050565b6000612604602083612ddc565b91507f4552433732313a206d696e7420746f20746865207a65726f20616464726573736000830152602082019050919050565b6000612644601a83612ddc565b91507f596f7520616c7265616479206f776e207468697320746f6b656e0000000000006000830152602082019050919050565b6000612684603183612ddc565b91507f45524337323155524953746f726167653a2055524920717565727920666f722060008301527f6e6f6e6578697374656e7420746f6b656e0000000000000000000000000000006020830152604082019050919050565b60006126ea602c83612ddc565b91507f4552433732313a20617070726f76656420717565727920666f72206e6f6e657860008301527f697374656e7420746f6b656e00000000000000000000000000000000000000006020830152604082019050919050565b6000612750600f83612ddc565b91507f496e636f72726563742076616c756500000000000000000000000000000000006000830152602082019050919050565b6000612790602983612ddc565b91507f4552433732313a207472616e73666572206f6620746f6b656e2074686174206960008301527f73206e6f74206f776e00000000000000000000000000000000000000000000006020830152604082019050919050565b60006127f6602f83612ddc565b91507f4552433732314d657461646174613a2055524920717565727920666f72206e6f60008301527f6e6578697374656e7420746f6b656e00000000000000000000000000000000006020830152604082019050919050565b600061285c602183612ddc565b91507f4552433732313a20617070726f76616c20746f2063757272656e74206f776e6560008301527f72000000000000000000000000000000000000000000000000000000000000006020830152604082019050919050565b60006128c2601783612ddc565b91507f4e6f74206f776e6572206f66207468697320746f6b656e0000000000000000006000830152602082019050919050565b6000612902603183612ddc565b91507f4552433732313a207472616e736665722063616c6c6572206973206e6f74206f60008301527f776e6572206e6f7220617070726f7665640000000000000000000000000000006020830152604082019050919050565b61296481612f1d565b82525050565b600061297682856121fc565b915061298282846121fc565b91508190509392505050565b60006020820190506129a3600083018461216c565b92915050565b60006060820190506129be600083018661216c565b6129cb602083018561216c565b6129d8604083018461295b565b949350505050565b60006080820190506129f5600083018761216c565b612a02602083018661216c565b612a0f604083018561295b565b8181036060830152612a21818461218a565b905095945050505050565b6000602082019050612a41600083018461217b565b92915050565b60006020820190508181036000830152612a6181846121c3565b905092915050565b60006020820190508181036000830152612a828161222d565b9050919050565b60006020820190508181036000830152612aa28161226d565b9050919050565b60006020820190508181036000830152612ac2816122d3565b9050919050565b60006020820190508181036000830152612ae281612313565b9050919050565b60006020820190508181036000830152612b0281612353565b9050919050565b60006020820190508181036000830152612b22816123b9565b9050919050565b60006020820190508181036000830152612b42816123f9565b9050919050565b60006020820190508181036000830152612b628161245f565b9050919050565b60006020820190508181036000830152612b82816124c5565b9050919050565b60006020820190508181036000830152612ba28161252b565b9050919050565b60006020820190508181036000830152612bc281612591565b9050919050565b60006020820190508181036000830152612be2816125f7565b9050919050565b60006020820190508181036000830152612c0281612637565b9050919050565b60006020820190508181036000830152612c2281612677565b9050919050565b60006020820190508181036000830152612c42816126dd565b9050919050565b60006020820190508181036000830152612c6281612743565b9050919050565b60006020820190508181036000830152612c8281612783565b9050919050565b60006020820190508181036000830152612ca2816127e9565b9050919050565b60006020820190508181036000830152612cc28161284f565b9050919050565b60006020820190508181036000830152612ce2816128b5565b9050919050565b60006020820190508181036000830152612d02816128f5565b9050919050565b6000602082019050612d1e600083018461295b565b92915050565b6000604051905081810181811067ffffffffffffffff82111715612d4b57612d4a6130a2565b5b8060405250919050565b600067ffffffffffffffff821115612d7057612d6f6130a2565b5b601f19601f8301169050602081019050919050565b600067ffffffffffffffff821115612da057612d9f6130a2565b5b601f19601f8301169050602081019050919050565b600081519050919050565b600081519050919050565b600082825260208201905092915050565b600082825260208201905092915050565b600081905092915050565b6000612e0382612f1d565b9150612e0e83612f1d565b9250827fffffffffffffffffffffffffffffffffffffffffffffffffffffffffffffffff03821115612e4357612e42613015565b5b828201905092915050565b6000612e5982612f1d565b9150612e6483612f1d565b925082612e7457612e73613044565b5b828204905092915050565b6000612e8a82612f1d565b9150612e9583612f1d565b925082821015612ea857612ea7613015565b5b828203905092915050565b6000612ebe82612efd565b9050919050565b60008115159050919050565b60007fffffffff0000000000000000000000000000000000000000000000000000000082169050919050565b600073ffffffffffffffffffffffffffffffffffffffff82169050919050565b6000819050919050565b82818337600083830152505050565b60005b83811015612f54578082015181840152602081019050612f39565b83811115612f63576000848401525b50505050565b60006002820490506001821680612f8157607f821691505b60208210811415612f9557612f94613073565b5b50919050565b6000612fa682612f1d565b91507fffffffffffffffffffffffffffffffffffffffffffffffffffffffffffffffff821415612fd957612fd8613015565b5b600182019050919050565b6000612fef82612f1d565b9150612ffa83612f1d565b92508261300a57613009613044565b5b828206905092915050565b7f4e487b7100000000000000000000000000000000000000000000000000000000600052601160045260246000fd5b7f4e487b7100000000000000000000000000000000000000000000000000000000600052601260045260246000fd5b7f4e487b7100000000000000000000000000000000000000000000000000000000600052602260045260246000fd5b7f4e487b7100000000000000000000000000000000000000000000000000000000600052604160045260246000fd5b6000601f19601f8301169050919050565b6130eb81612eb3565b81146130f657600080fd5b50565b61310281612ec5565b811461310d57600080fd5b50565b61311981612ed1565b811461312457600080fd5b50565b61313081612f1d565b811461313b57600080fd5b5056fea26469706673582212209e4a79be56af00908a0fe5b4a8636f06b4382990e0b0761cd6d73b8265ca012b64736f6c63430008000033",
  "linkReferences": {},
  "deployedLinkReferences": {}
}